{
  "contractName": "Admin",
  "abi": [
    {
      "constant": true,
      "inputs": [
        {
          "name": "",
          "type": "address"
        }
      ],
      "name": "adminStructs",
      "outputs": [
        {
          "name": "Name",
          "type": "bytes32"
        },
        {
          "name": "index",
          "type": "uint256"
        }
      ],
      "payable": false,
      "stateMutability": "view",
      "type": "function"
    },
    {
      "constant": true,
      "inputs": [
        {
          "name": "",
          "type": "uint256"
        }
      ],
      "name": "adminIndex",
      "outputs": [
        {
          "name": "",
          "type": "address"
        }
      ],
      "payable": false,
      "stateMutability": "view",
      "type": "function"
    },
    {
      "inputs": [],
      "payable": false,
      "stateMutability": "nonpayable",
      "type": "constructor"
    },
    {
      "payable": false,
      "stateMutability": "nonpayable",
      "type": "fallback"
    },
    {
      "anonymous": false,
      "inputs": [
        {
          "indexed": true,
          "name": "adminAddress",
          "type": "address"
        },
        {
          "indexed": false,
          "name": "index",
          "type": "uint256"
        },
        {
          "indexed": false,
          "name": "Name",
          "type": "bytes32"
        }
      ],
      "name": "LogNewAdmin",
      "type": "event"
    },
    {
      "anonymous": false,
      "inputs": [
        {
          "indexed": true,
          "name": "adminAddress",
          "type": "address"
        },
        {
          "indexed": false,
          "name": "index",
          "type": "uint256"
        },
        {
          "indexed": false,
          "name": "Name",
          "type": "bytes32"
        }
      ],
      "name": "LogUpdateAdmin",
      "type": "event"
    },
    {
      "anonymous": false,
      "inputs": [
        {
          "indexed": true,
          "name": "adminAddress",
          "type": "address"
        },
        {
          "indexed": false,
          "name": "index",
          "type": "uint256"
        }
      ],
      "name": "LogDeleteAdmin",
      "type": "event"
    },
    {
      "constant": false,
      "inputs": [],
      "name": "kill",
      "outputs": [],
      "payable": false,
      "stateMutability": "nonpayable",
      "type": "function"
    },
    {
      "constant": true,
      "inputs": [],
      "name": "getAdminIndexLength",
      "outputs": [
        {
          "name": "indexlength",
          "type": "uint256"
        }
      ],
      "payable": false,
      "stateMutability": "view",
      "type": "function"
    },
    {
      "constant": true,
      "inputs": [
        {
          "name": "_adminAddress",
          "type": "address"
        }
      ],
      "name": "isAdmin",
      "outputs": [
        {
          "name": "isIndeed",
          "type": "bool"
        }
      ],
      "payable": false,
      "stateMutability": "view",
      "type": "function"
    },
    {
      "constant": false,
      "inputs": [
        {
          "name": "_adminAddress",
          "type": "address"
        },
        {
          "name": "_name",
          "type": "bytes32"
        }
      ],
      "name": "insertAdmin",
      "outputs": [
        {
          "name": "newindex",
          "type": "uint256"
        }
      ],
      "payable": false,
      "stateMutability": "nonpayable",
      "type": "function"
    },
    {
      "constant": true,
      "inputs": [
        {
          "name": "_index",
          "type": "uint256"
        }
      ],
      "name": "getAdminNameAtIndex",
      "outputs": [
        {
          "name": "Name",
          "type": "string"
        }
      ],
      "payable": false,
      "stateMutability": "view",
      "type": "function"
    },
    {
      "constant": false,
      "inputs": [
        {
          "name": "_adminAddress",
          "type": "address"
        }
      ],
      "name": "deleteAdmin",
      "outputs": [
        {
          "name": "index",
          "type": "uint256"
        }
      ],
      "payable": false,
      "stateMutability": "nonpayable",
      "type": "function"
    },
    {
      "constant": true,
      "inputs": [
        {
          "name": "index",
          "type": "uint256"
        }
      ],
      "name": "getAdminAtIndex",
      "outputs": [
        {
          "name": "adminAddress",
          "type": "address"
        }
      ],
      "payable": false,
      "stateMutability": "view",
      "type": "function"
    },
    {
      "constant": true,
      "inputs": [
        {
          "name": "_adminAddress",
          "type": "address"
        }
      ],
      "name": "getAdmin",
      "outputs": [
        {
          "name": "adminName",
          "type": "bytes32"
        },
        {
          "name": "index",
          "type": "uint256"
        }
      ],
      "payable": false,
      "stateMutability": "view",
      "type": "function"
    },
    {
      "constant": false,
      "inputs": [
        {
          "name": "_adminAddress",
          "type": "address"
        },
        {
          "name": "_name",
          "type": "bytes32"
        }
      ],
      "name": "updateAdminName",
      "outputs": [
        {
          "name": "success",
          "type": "bool"
        }
      ],
      "payable": false,
      "stateMutability": "nonpayable",
      "type": "function"
    }
  ],
  "bytecode": "0x608060405233600260006101000a81548173ffffffffffffffffffffffffffffffffffffffff021916908373ffffffffffffffffffffffffffffffffffffffff16021790555034801561005157600080fd5b5061008b337f436f6e7472616374204f776e65720000000000000000000000000000000000006100df640100000000026401000000009004565b506100d973ab4d7c1f5c7cbd117c58519118972782fde0b7637f41646d696e2061000000000000000000000000000000000000000000000000006100df640100000000026401000000009004565b506103d8565b60006100f98361030f640100000000026401000000009004565b15151561016e576040517f08c379a00000000000000000000000000000000000000000000000000000000081526004018080602001828103825260158152602001807f41646d696e20616c7265616479206578697374732e000000000000000000000081525060200191505060405180910390fd5b816000808573ffffffffffffffffffffffffffffffffffffffff1673ffffffffffffffffffffffffffffffffffffffff16815260200190815260200160002060000181600019169055506001808490806001815401808255809150509060018203906000526020600020016000909192909190916101000a81548173ffffffffffffffffffffffffffffffffffffffff021916908373ffffffffffffffffffffffffffffffffffffffff160217905550039050806000808573ffffffffffffffffffffffffffffffffffffffff1673ffffffffffffffffffffffffffffffffffffffff168152602001908152602001600020600101819055508273ffffffffffffffffffffffffffffffffffffffff167f19da30336b96b7d7828e7af3bdb050346c4da1a90f039575b23e3c00229b64906000808673ffffffffffffffffffffffffffffffffffffffff1673ffffffffffffffffffffffffffffffffffffffff16815260200190815260200160002060010154846040518083815260200182600019166000191681526020019250505060405180910390a280905092915050565b600080600180549050141561032757600090506103d3565b8173ffffffffffffffffffffffffffffffffffffffff1660016000808573ffffffffffffffffffffffffffffffffffffffff1673ffffffffffffffffffffffffffffffffffffffff1681526020019081526020016000206001015481548110151561038e57fe5b9060005260206000200160009054906101000a900473ffffffffffffffffffffffffffffffffffffffff1673ffffffffffffffffffffffffffffffffffffffff161490505b919050565b6110e9806103e76000396000f3006080604052600436106100af576000357c0100000000000000000000000000000000000000000000000000000000900463ffffffff1680630716c7fc1461012a578063112d6cfd1461019057806316f8f0a2146101bb5780631b4a4a191461022857806324d7806c1461028d57806327e1f7df146102e857806341c0e1b51461033f57806364efb22b146103565780637b4519df146103bc578063ab181ebd14610425578063f1c4132e146104cb575b3480156100bb57600080fd5b506040517f08c379a00000000000000000000000000000000000000000000000000000000081526004018080602001828103825260108152602001807f436f6e7472616374206661696c7572650000000000000000000000000000000081525060200191505060405180910390fd5b34801561013657600080fd5b5061016b600480360381019080803573ffffffffffffffffffffffffffffffffffffffff169060200190929190505050610538565b6040518083600019166000191681526020018281526020019250505060405180910390f35b34801561019c57600080fd5b506101a561055c565b6040518082815260200191505060405180910390f35b3480156101c757600080fd5b506101e660048036038101908080359060200190929190505050610569565b604051808273ffffffffffffffffffffffffffffffffffffffff1673ffffffffffffffffffffffffffffffffffffffff16815260200191505060405180910390f35b34801561023457600080fd5b50610277600480360381019080803573ffffffffffffffffffffffffffffffffffffffff16906020019092919080356000191690602001909291905050506105a7565b6040518082815260200191505060405180910390f35b34801561029957600080fd5b506102ce600480360381019080803573ffffffffffffffffffffffffffffffffffffffff1690602001909291905050506107c8565b604051808215151515815260200191505060405180910390f35b3480156102f457600080fd5b50610329600480360381019080803573ffffffffffffffffffffffffffffffffffffffff169060200190929190505050610891565b6040518082815260200191505060405180910390f35b34801561034b57600080fd5b50610354610b6a565b005b34801561036257600080fd5b50610397600480360381019080803573ffffffffffffffffffffffffffffffffffffffff169060200190929190505050610bfd565b6040518083600019166000191681526020018281526020019250505060405180910390f35b3480156103c857600080fd5b5061040b600480360381019080803573ffffffffffffffffffffffffffffffffffffffff1690602001909291908035600019169060200190929190505050610d0a565b604051808215151515815260200191505060405180910390f35b34801561043157600080fd5b5061045060048036038101908080359060200190929190505050610ea2565b6040518080602001828103825283818151815260200191508051906020019080838360005b83811015610490578082015181840152602081019050610475565b50505050905090810190601f1680156104bd5780820380516001836020036101000a031916815260200191505b509250505060405180910390f35b3480156104d757600080fd5b506104f660048036038101908080359060200190929190505050611029565b604051808273ffffffffffffffffffffffffffffffffffffffff1673ffffffffffffffffffffffffffffffffffffffff16815260200191505060405180910390f35b60006020528060005260406000206000915090508060000154908060010154905082565b6000600180549050905090565b60018181548110151561057857fe5b906000526020600020016000915054906101000a900473ffffffffffffffffffffffffffffffffffffffff1681565b60006105b2836107c8565b151515610627576040517f08c379a00000000000000000000000000000000000000000000000000000000081526004018080602001828103825260158152602001807f41646d696e20616c7265616479206578697374732e000000000000000000000081525060200191505060405180910390fd5b816000808573ffffffffffffffffffffffffffffffffffffffff1673ffffffffffffffffffffffffffffffffffffffff16815260200190815260200160002060000181600019169055506001808490806001815401808255809150509060018203906000526020600020016000909192909190916101000a81548173ffffffffffffffffffffffffffffffffffffffff021916908373ffffffffffffffffffffffffffffffffffffffff160217905550039050806000808573ffffffffffffffffffffffffffffffffffffffff1673ffffffffffffffffffffffffffffffffffffffff168152602001908152602001600020600101819055508273ffffffffffffffffffffffffffffffffffffffff167f19da30336b96b7d7828e7af3bdb050346c4da1a90f039575b23e3c00229b64906000808673ffffffffffffffffffffffffffffffffffffffff1673ffffffffffffffffffffffffffffffffffffffff16815260200190815260200160002060010154846040518083815260200182600019166000191681526020019250505060405180910390a280905092915050565b60008060018054905014156107e0576000905061088c565b8173ffffffffffffffffffffffffffffffffffffffff1660016000808573ffffffffffffffffffffffffffffffffffffffff1673ffffffffffffffffffffffffffffffffffffffff1681526020019081526020016000206001015481548110151561084757fe5b9060005260206000200160009054906101000a900473ffffffffffffffffffffffffffffffffffffffff1673ffffffffffffffffffffffffffffffffffffffff161490505b919050565b600080600061089f846107c8565b1515610939576040517f08c379a00000000000000000000000000000000000000000000000000000000081526004018080602001828103825260238152602001807f41646d696e20746f2062652064656c6574656420646f6573206e6f742065786981526020017f73742e000000000000000000000000000000000000000000000000000000000081525060400191505060405180910390fd5b6000808573ffffffffffffffffffffffffffffffffffffffff1673ffffffffffffffffffffffffffffffffffffffff16815260200190815260200160002060010154915060018080805490500381548110151561099257fe5b9060005260206000200160009054906101000a900473ffffffffffffffffffffffffffffffffffffffff169050806001838154811015156109cf57fe5b9060005260206000200160006101000a81548173ffffffffffffffffffffffffffffffffffffffff021916908373ffffffffffffffffffffffffffffffffffffffff160217905550816000808373ffffffffffffffffffffffffffffffffffffffff1673ffffffffffffffffffffffffffffffffffffffff168152602001908152602001600020600101819055506001805480919060019003610a72919061106c565b508373ffffffffffffffffffffffffffffffffffffffff167fe8ee7cd4ce5ae1bb1c376ce0e9a2a65b8d51fa909043348ae69d9bd7db2b6968836040518082815260200191505060405180910390a28073ffffffffffffffffffffffffffffffffffffffff167f2a3e9c01926137c850a00fa7e2fe6660e36c9cbeec4dae415ca08d74b53b05f1836000808573ffffffffffffffffffffffffffffffffffffffff1673ffffffffffffffffffffffffffffffffffffffff168152602001908152602001600020600001546040518083815260200182600019166000191681526020019250505060405180910390a28192505050919050565b600260009054906101000a900473ffffffffffffffffffffffffffffffffffffffff1673ffffffffffffffffffffffffffffffffffffffff163373ffffffffffffffffffffffffffffffffffffffff161415610bfb57600260009054906101000a900473ffffffffffffffffffffffffffffffffffffffff1673ffffffffffffffffffffffffffffffffffffffff16ff5b565b600080610c09836107c8565b1515610c7d576040517f08c379a00000000000000000000000000000000000000000000000000000000081526004018080602001828103825260158152602001807f41646d696e20646f6573206e6f742065786973742e000000000000000000000081525060200191505060405180910390fd5b6000808473ffffffffffffffffffffffffffffffffffffffff1673ffffffffffffffffffffffffffffffffffffffff168152602001908152602001600020600001546000808573ffffffffffffffffffffffffffffffffffffffff1673ffffffffffffffffffffffffffffffffffffffff1681526020019081526020016000206001015491509150915091565b6000610d15836107c8565b1515610daf576040517f08c379a00000000000000000000000000000000000000000000000000000000081526004018080602001828103825260238152602001807f41646d696e20746f206265207570646174656420646f6573206e6f742065786981526020017f73742e000000000000000000000000000000000000000000000000000000000081525060400191505060405180910390fd5b816000808573ffffffffffffffffffffffffffffffffffffffff1673ffffffffffffffffffffffffffffffffffffffff16815260200190815260200160002060000181600019169055508273ffffffffffffffffffffffffffffffffffffffff167f2a3e9c01926137c850a00fa7e2fe6660e36c9cbeec4dae415ca08d74b53b05f16000808673ffffffffffffffffffffffffffffffffffffffff1673ffffffffffffffffffffffffffffffffffffffff16815260200190815260200160002060010154846040518083815260200182600019166000191681526020019250505060405180910390a26001905092915050565b606073__MaintLibrary__________________________63ef0b2368600080600186815481101515610ed057fe5b9060005260206000200160009054906101000a900473ffffffffffffffffffffffffffffffffffffffff1673ffffffffffffffffffffffffffffffffffffffff1673ffffffffffffffffffffffffffffffffffffffff168152602001908152602001600020600001546040518263ffffffff167c010000000000000000000000000000000000000000000000000000000002815260040180826000191660001916815260200191505060006040518083038186803b158015610f9157600080fd5b505af4158015610fa5573d6000803e3d6000fd5b505050506040513d6000823e3d601f19601f820116820180604052506020811015610fcf57600080fd5b810190808051640100000000811115610fe757600080fd5b82810190506020810184811115610ffd57600080fd5b815185600182028301116401000000008211171561101a57600080fd5b50509291905050509050919050565b600060018281548110151561103a57fe5b9060005260206000200160009054906101000a900473ffffffffffffffffffffffffffffffffffffffff169050919050565b815481835581811115611093578183600052602060002091820191016110929190611098565b5b505050565b6110ba91905b808211156110b657600081600090555060010161109e565b5090565b905600a165627a7a72305820842fcb52fdb8307aafed153c8a0e339ea1c43427c7641b48cd5c9d2cba1549a70029",
  "source": "pragma solidity ^0.4.17;\r\n\r\nimport { MaintLibrary } from \"./MaintLibrary.sol\";\r\n\r\n/* @title Admin*/\r\n/* @dev Manages Admin functionality, initializes some Admins\r\n*/\r\ncontract Admin {\r\n\r\n    struct TableStruct {\r\n        bytes32 Name;\r\n        uint index;\r\n    }  \r\n\r\n    mapping(address => TableStruct) public adminStructs;\r\n    address[] public adminIndex;\r\n    address owner = msg.sender; \r\n\r\n    event LogNewAdmin (address indexed adminAddress, uint index, bytes32 Name );\r\n    event LogUpdateAdmin (address indexed adminAddress, uint index, bytes32 Name );\r\n    event LogDeleteAdmin (address indexed adminAddress, uint index ); \r\n\r\n    //Constructor\r\n    constructor() public { \r\n        // Set initiator of contract to 1st admin \r\n        insertAdmin(msg.sender,\"Contract Owner\");    \r\n        insertAdmin(0xAb4D7C1F5c7cBd117C58519118972782FDe0B763,\"Admin a\");    \r\n    }\r\n\r\n    /* @title kill*/\r\n    /* @dev kills contract      \r\n    */        \r\n    // Kill contract function\r\n    function kill() public { \r\n        if(msg.sender == owner) {\r\n            selfdestruct(owner); \r\n        }\r\n    }\r\n\r\n   \r\n    /* @title getAdminIndexLength  */    \r\n    /* @dev retuns length of Admin index            \r\n        @return indexlength\r\n    */\r\n    function getAdminIndexLength() public view returns (uint indexlength) {\r\n        return  adminIndex.length;\r\n    }\r\n\r\n    /* @titleisAdmin */    \r\n    /* @dev checks if admin address exists\r\n        @param _adminAddress adminaddress\r\n        @return isIndeed boolean value\r\n    */    \r\n    function isAdmin(address _adminAddress) public view returns(bool isIndeed)\r\n    {\r\n        if(adminIndex.length == 0) return false;\r\n        return (adminIndex[adminStructs[_adminAddress].index] == _adminAddress);\r\n    }\r\n\r\n    /* @title insertAdmin */    \r\n    /* @dev inserts admin \r\n        @param _adminAddress adminAddress\r\n        @param _name name\r\n        @return newindex\r\n    */    \r\n    function insertAdmin(address _adminAddress, bytes32 _name) public returns(uint newindex)  {       \r\n        require(!isAdmin(_adminAddress),\"Admin already exists.\");\r\n        adminStructs[_adminAddress].Name = _name;\r\n        newindex = adminIndex.push(_adminAddress)-1;\r\n        adminStructs[_adminAddress].index = newindex;\r\n        emit LogNewAdmin(_adminAddress, adminStructs[_adminAddress].index,_name);\r\n        return newindex; \r\n    } \r\n\r\n    /* @title getAdminNameAtIndex */\r\n    /* @dev returns Admin name via index call\r\n        @param _index index\r\n        @return Name  name\r\n    */    \r\n    function getAdminNameAtIndex(uint _index) public view returns (string Name) {\r\n        return MaintLibrary.bytes32ToStr(adminStructs[adminIndex[_index]].Name);\r\n    }\r\n    \r\n    /* @title deleteAdmin */\r\n    /* @dev deletes admin\r\n        @param _adminAddress            \r\n        @return index\r\n    */        \r\n    function deleteAdmin(address _adminAddress) public returns(uint index) {\r\n        require(isAdmin(_adminAddress),\"Admin to be deleted does not exist.\");       \r\n        uint rowToDelete = adminStructs[_adminAddress].index;\r\n        address keyToMove = adminIndex[adminIndex.length-1];\r\n        adminIndex[rowToDelete] = keyToMove;\r\n        adminStructs[keyToMove].index = rowToDelete;\r\n        adminIndex.length--;\r\n        emit LogDeleteAdmin(_adminAddress,rowToDelete);\r\n        emit LogUpdateAdmin(keyToMove,rowToDelete,adminStructs[keyToMove].Name);\r\n        return rowToDelete;\r\n    }    \r\n\r\n    /* @title getAdminAtIndex  */\r\n    /* @dev gets admin address via index\r\n        @param index            \r\n        @return adminAddres\r\n    */    \r\n    function getAdminAtIndex(uint index) public view returns (address adminAddress) {\r\n        return adminIndex[index];\r\n    }\r\n\r\n    /* @title getAdmin */\r\n    /* @dev returns admin struct array  via adminaddress\r\n        @param _adminAddress\r\n        @return adminName\r\n        @return index\r\n    */\r\n    function getAdmin(address _adminAddress) public  view returns (bytes32 adminName, uint index) {\r\n        require(isAdmin(_adminAddress),\"Admin does not exist.\");   \r\n        return (adminStructs[_adminAddress].Name, adminStructs[_adminAddress].index);        \r\n    }    \r\n    \r\n    /* @title updateAdminName  */    \r\n    /* @dev updates Admin's name \r\n        @param _adminAddress\r\n        @param _name\r\n        @return success\r\n    */    \r\n    function updateAdminName(address _adminAddress, bytes32 _name) public returns(bool success) {\r\n        require(isAdmin(_adminAddress),\"Admin to be updated does not exist.\");\r\n        adminStructs[_adminAddress].Name = _name;\r\n        emit LogUpdateAdmin(_adminAddress,adminStructs[_adminAddress].index,_name);\r\n        return true;\r\n    }\r\n\r\n    // Fallback function - Called if other functions don't match call or\r\n    // sent ether without data\r\n    // Typically, called when invalid data is sent\r\n    // Added so ether sent to this contract is reverted if the contract fails\r\n    // otherwise, the sender's money is transferred to contract\r\n\r\n    /* @title Fallback*/    \r\n    /* @dev fallback function if contract called with no function to force it to revert.\r\n        @return revert\r\n    */    \r\n    function () public {\r\n        revert(\"Contract failure\");\r\n    }\r\n}",
  "sourcePath": "C:\\Active\\BitBucket_Repositories\\Consensys_project\\AncientCoinShop\\contracts\\Admin.sol",
  "compiler": {
    "name": "solc",
    "version": "0.4.24+commit.e67f0147.Emscripten.clang"
  },
  "schemaVersion": "2.0.1",
  "updatedAt": "2018-08-28T09:22:47.265Z"
}