{
  "contractName": "Coin",
  "abi": [
    {
      "constant": true,
      "inputs": [
        {
          "name": "",
          "type": "uint256"
        }
      ],
      "name": "coinExists",
      "outputs": [
        {
          "name": "",
          "type": "bool"
        }
      ],
      "payable": false,
      "stateMutability": "view",
      "type": "function"
    },
    {
      "constant": true,
      "inputs": [
        {
          "name": "",
          "type": "bytes32"
        }
      ],
      "name": "coinStructs",
      "outputs": [
        {
          "name": "",
          "type": "uint256"
        }
      ],
      "payable": false,
      "stateMutability": "view",
      "type": "function"
    },
    {
      "constant": true,
      "inputs": [
        {
          "name": "",
          "type": "uint256"
        }
      ],
      "name": "coinIndex",
      "outputs": [
        {
          "name": "",
          "type": "bytes32"
        }
      ],
      "payable": false,
      "stateMutability": "view",
      "type": "function"
    },
    {
      "inputs": [],
      "payable": false,
      "stateMutability": "nonpayable",
      "type": "constructor"
    },
    {
      "payable": false,
      "stateMutability": "nonpayable",
      "type": "fallback"
    },
    {
      "anonymous": false,
      "inputs": [
        {
          "indexed": true,
          "name": "coinId",
          "type": "uint256"
        },
        {
          "indexed": false,
          "name": "coinName",
          "type": "bytes32"
        }
      ],
      "name": "LogNewCoin",
      "type": "event"
    },
    {
      "anonymous": false,
      "inputs": [
        {
          "indexed": true,
          "name": "coinId",
          "type": "uint256"
        },
        {
          "indexed": false,
          "name": "coinName",
          "type": "bytes32"
        }
      ],
      "name": "LogUpdateCoin",
      "type": "event"
    },
    {
      "anonymous": false,
      "inputs": [
        {
          "indexed": true,
          "name": "coinId",
          "type": "uint256"
        },
        {
          "indexed": false,
          "name": "coinName",
          "type": "bytes32"
        }
      ],
      "name": "LogDeleteCoin",
      "type": "event"
    },
    {
      "anonymous": false,
      "inputs": [
        {
          "indexed": false,
          "name": "lineno",
          "type": "uint256"
        }
      ],
      "name": "debug",
      "type": "event"
    },
    {
      "constant": false,
      "inputs": [],
      "name": "kill",
      "outputs": [],
      "payable": false,
      "stateMutability": "nonpayable",
      "type": "function"
    },
    {
      "constant": true,
      "inputs": [],
      "name": "getCoinIndexLength",
      "outputs": [
        {
          "name": "",
          "type": "uint256"
        }
      ],
      "payable": false,
      "stateMutability": "view",
      "type": "function"
    },
    {
      "constant": true,
      "inputs": [
        {
          "name": "_coinName",
          "type": "bytes32"
        }
      ],
      "name": "isCoin",
      "outputs": [
        {
          "name": "",
          "type": "bool"
        }
      ],
      "payable": false,
      "stateMutability": "view",
      "type": "function"
    },
    {
      "constant": false,
      "inputs": [
        {
          "name": "_coinName",
          "type": "bytes32"
        }
      ],
      "name": "insertCoin",
      "outputs": [
        {
          "name": "",
          "type": "uint256"
        }
      ],
      "payable": false,
      "stateMutability": "nonpayable",
      "type": "function"
    },
    {
      "constant": true,
      "inputs": [
        {
          "name": "_index",
          "type": "uint256"
        }
      ],
      "name": "isCoinId",
      "outputs": [
        {
          "name": "",
          "type": "bool"
        }
      ],
      "payable": false,
      "stateMutability": "view",
      "type": "function"
    },
    {
      "constant": true,
      "inputs": [
        {
          "name": "index",
          "type": "uint256"
        }
      ],
      "name": "getCoinNameAtIndex",
      "outputs": [
        {
          "name": "",
          "type": "string"
        }
      ],
      "payable": false,
      "stateMutability": "view",
      "type": "function"
    },
    {
      "constant": true,
      "inputs": [
        {
          "name": "_coinname",
          "type": "bytes32"
        }
      ],
      "name": "getCoinid",
      "outputs": [
        {
          "name": "",
          "type": "uint256"
        }
      ],
      "payable": false,
      "stateMutability": "view",
      "type": "function"
    },
    {
      "constant": false,
      "inputs": [
        {
          "name": "_coinName",
          "type": "bytes32"
        }
      ],
      "name": "deleteCoin",
      "outputs": [
        {
          "name": "index",
          "type": "uint256"
        }
      ],
      "payable": false,
      "stateMutability": "nonpayable",
      "type": "function"
    }
  ],
  "bytecode": "0x608060405233600360006101000a81548173ffffffffffffffffffffffffffffffffffffffff021916908373ffffffffffffffffffffffffffffffffffffffff16021790555034801561005157600080fd5b5061008a7f4e6f20436f696e0000000000000000000000000000000000000000000000000061013b640100000000026401000000009004565b506100c37f42726f6e7a6520436f696e00000000000000000000000000000000000000000061013b640100000000026401000000009004565b506100fc7f53696c76657220436f696e00000000000000000000000000000000000000000061013b640100000000026401000000009004565b506101357f476f6c6420436f696e000000000000000000000000000000000000000000000061013b640100000000026401000000009004565b506102d3565b60008061015683610294640100000000026401000000009004565b1515156101cb576040517f08c379a00000000000000000000000000000000000000000000000000000000081526004018080602001828103825260148152602001807f436f696e20616c7265616479206578697374732e00000000000000000000000081525060200191505060405180910390fd5b60018084908060018154018082558091505090600182039060005260206000200160009091929091909150906000191690550390508060008085600019166000191681526020019081526020016000208190555060016002600083815260200190815260200160002060006101000a81548160ff021916908315150217905550807f0f468a246e024799ae3230df2de655f6449b4cdd4cc0718485044417be2ba6f28460405180826000191660001916815260200191505060405180910390a280915050919050565b60008060018054905014156102ac57600090506102ce565b6000806000846000191660001916815260200190815260200160002054141590505b919050565b610b6c806102e26000396000f3006080604052600436106100af576000357c0100000000000000000000000000000000000000000000000000000000900463ffffffff16806318e803c91461012a57806341c0e1b51461016f5780635265600614610186578063719a4b26146101cb5780639cf966a314610210578063afcf9759146102b6578063b42bda51146102fb578063ba0b9cee14610340578063bc0996df14610389578063caac48f7146103d2578063e7486ddc14610417575b3480156100bb57600080fd5b506040517f08c379a00000000000000000000000000000000000000000000000000000000081526004018080602001828103825260108152602001807f436f6e7472616374206661696c7572650000000000000000000000000000000081525060200191505060405180910390fd5b34801561013657600080fd5b506101596004803603810190808035600019169060200190929190505050610442565b6040518082815260200191505060405180910390f35b34801561017b57600080fd5b506101846106e0565b005b34801561019257600080fd5b506101b160048036038101908080359060200190929190505050610773565b604051808215151515815260200191505060405180910390f35b3480156101d757600080fd5b506101f6600480360381019080803590602001909291905050506107b4565b604051808215151515815260200191505060405180910390f35b34801561021c57600080fd5b5061023b600480360381019080803590602001909291905050506107d4565b6040518080602001828103825283818151815260200191508051906020019080838360005b8381101561027b578082015181840152602081019050610260565b50505050905090810190601f1680156102a85780820380516001836020036101000a031916815260200191505b509250505060405180910390f35b3480156102c257600080fd5b506102e560048036038101908080356000191690602001909291905050506108fa565b6040518082815260200191505060405180910390f35b34801561030757600080fd5b5061032a600480360381019080803560001916906020019092919050505061091e565b6040518082815260200191505060405180910390f35b34801561034c57600080fd5b5061036b60048036038101908080359060200190929190505050610936565b60405180826000191660001916815260200191505060405180910390f35b34801561039557600080fd5b506103b86004803603810190808035600019169060200190929190505050610959565b604051808215151515815260200191505060405180910390f35b3480156103de57600080fd5b506104016004803603810190808035600019169060200190929190505050610998565b6040518082815260200191505060405180910390f35b34801561042357600080fd5b5061042c610ae2565b6040518082815260200191505060405180910390f35b600080600061045084610959565b15156104ea576040517f08c379a00000000000000000000000000000000000000000000000000000000081526004018080602001828103825260228152602001807f436f696e20746f2062652064656c6574656420646f6573206e6f74206578697381526020017f742e00000000000000000000000000000000000000000000000000000000000081525060400191505060405180910390fd5b7f4e6f20436f696e000000000000000000000000000000000000000000000000008460001916141515156105ac576040517f08c379a00000000000000000000000000000000000000000000000000000000081526004018080602001828103825260248152602001807f4e6f7420616c6c6f77656420746f2064656c6574652027496e697469616c204381526020017f6f696e270000000000000000000000000000000000000000000000000000000081525060400191505060405180910390fd5b60008085600019166000191681526020019081526020016000205491506001808080549050038154811015156105de57fe5b906000526020600020015490506000600260006001808054905003815260200190815260200160002060006101000a81548160ff0219169083151502179055508060018381548110151561062e57fe5b90600052602060002001816000191690555060018054809190600190036106559190610aef565b50817f529efa9ffc0b4a9cb8b77fc6d01e92cefab8db23fbe6407de76860e87a9ceebd8560405180826000191660001916815260200191505060405180910390a2817f3a19a9f138cfb0ec0255381d43ab3516146c638e366a9a6d516bd7dccaaa58a48260405180826000191660001916815260200191505060405180910390a28192505050919050565b600360009054906101000a900473ffffffffffffffffffffffffffffffffffffffff1673ffffffffffffffffffffffffffffffffffffffff163373ffffffffffffffffffffffffffffffffffffffff16141561077157600360009054906101000a900473ffffffffffffffffffffffffffffffffffffffff1673ffffffffffffffffffffffffffffffffffffffff16ff5b565b600080600180549050141561078b57600090506107af565b6002600083815260200190815260200160002060009054906101000a900460ff1690505b919050565b60026020528060005260406000206000915054906101000a900460ff1681565b606073__MaintLibrary__________________________63ef0b23686001848154811015156107ff57fe5b90600052602060002001546040518263ffffffff167c010000000000000000000000000000000000000000000000000000000002815260040180826000191660001916815260200191505060006040518083038186803b15801561086257600080fd5b505af4158015610876573d6000803e3d6000fd5b505050506040513d6000823e3d601f19601f8201168201806040525060208110156108a057600080fd5b8101908080516401000000008111156108b857600080fd5b828101905060208101848111156108ce57600080fd5b81518560018202830111640100000000821117156108eb57600080fd5b50509291905050509050919050565b60008060008360001916600019168152602001908152602001600020549050919050565b60006020528060005260406000206000915090505481565b60018181548110151561094557fe5b906000526020600020016000915090505481565b60008060018054905014156109715760009050610993565b6000806000846000191660001916815260200190815260200160002054141590505b919050565b6000806109a483610959565b151515610a19576040517f08c379a00000000000000000000000000000000000000000000000000000000081526004018080602001828103825260148152602001807f436f696e20616c7265616479206578697374732e00000000000000000000000081525060200191505060405180910390fd5b60018084908060018154018082558091505090600182039060005260206000200160009091929091909150906000191690550390508060008085600019166000191681526020019081526020016000208190555060016002600083815260200190815260200160002060006101000a81548160ff021916908315150217905550807f0f468a246e024799ae3230df2de655f6449b4cdd4cc0718485044417be2ba6f28460405180826000191660001916815260200191505060405180910390a280915050919050565b6000600180549050905090565b815481835581811115610b1657818360005260206000209182019101610b159190610b1b565b5b505050565b610b3d91905b80821115610b39576000816000905550600101610b21565b5090565b905600a165627a7a7230582008a0314e89db214ec743eb4fbed631842e82afe1d8702232da760b22603bed9f0029",
  "source": "pragma solidity ^0.4.17;\r\n\r\nimport { MaintLibrary } from \"./MaintLibrary.sol\";\r\n/* @title Coin*/\r\ncontract Coin  {\r\n\r\n    mapping(bytes32 => uint) public coinStructs; \r\n    bytes32[] public coinIndex;  \r\n    mapping(uint => bool) public coinExists;\r\n    address owner = msg.sender; \r\n\r\n    event LogNewCoin (uint indexed coinId, bytes32  coinName);\r\n    event LogUpdateCoin (uint indexed coinId, bytes32  coinName);\r\n    event LogDeleteCoin (uint indexed coinId, bytes32  coinName);\r\n    event debug(uint lineno);\r\n\r\n    constructor() public {  \r\n        insertCoin(\"No Coin\"); // Adds a nonsensical entry so tests can be checked  > 0\r\n        insertCoin(\"Bronze Coin\");\r\n        insertCoin(\"Silver Coin\");\r\n        insertCoin(\"Gold Coin\");\r\n    } \r\n\r\n    /* @title kill*/\r\n    /* @dev kills contract      \r\n    */  \r\n    // Kill contract function\r\n    function kill() public { \r\n        if(msg.sender == owner) {\r\n            selfdestruct(owner); \r\n        }\r\n    }\r\n\r\n    /* @title  getCoinIndexLength        */\r\n    /* @dev returns Coin Index length \r\n    @return uint\r\n    */\r\n    function getCoinIndexLength() public view returns (uint) {\r\n        return coinIndex.length;\r\n    }\r\n\r\n\r\n    /* @title    isCoin      */\r\n    /* @dev check if coin exists via coinname\r\n    @param _coinName\r\n    @return bool    \r\n    */  \r\n    function isCoin(bytes32 _coinName) public view returns(bool )\r\n    {\r\n        if(coinIndex.length == 0) return false;\r\n        return ( coinStructs[_coinName] != 0 );\r\n    } \r\n\r\n    /* @title  insertCoin       */\r\n    /* @dev inserts coin details\r\n    @param _coinName\r\n    @return uint\r\n    */\r\n    function insertCoin(bytes32 _coinName) public returns(uint )  {     \r\n        require(!isCoin(_coinName),\"Coin already exists.\");  \r\n       // emit debug(34);              \r\n        uint indexno = coinIndex.push(_coinName)-1;\r\n       // emit debug(36);\r\n        coinStructs[_coinName] = indexno;\r\n       // emit debug(38);\r\n        coinExists[indexno] = true;\r\n       // emit debug(40);\r\n        emit LogNewCoin(indexno,_coinName);\r\n      //  emit debug(42);\r\n        return indexno; \r\n    } \r\n\r\n    /* @title   isCoinId       */\r\n    /* @dev checks if coinId exists\r\n    @param _index\r\n    @return bool\r\n    */\r\n    function isCoinId(uint _index) public view returns(bool)\r\n    {\r\n        if(coinIndex.length == 0) return false;\r\n        return (coinExists[_index]);\r\n    }\r\n\r\n    /* @title   getCoinNameAtIndex       */\r\n    /* @dev gets coin name via index\r\n    @param index    \r\n    @return string\r\n    */\r\n    function getCoinNameAtIndex(uint index) public view returns (string) {\r\n        return MaintLibrary.bytes32ToStr(coinIndex[index]);\r\n    }\r\n\r\n    /* @title   gets coin id        */\r\n    /* @dev _coinname   \r\n    @return uint\r\n    */\r\n    function getCoinid(bytes32 _coinname) public view returns (uint) {\r\n        return (coinStructs[_coinname]);\r\n    }\r\n\r\n    /* @title  deleteCoin        */\r\n    /* @dev deletes coin details\r\n    @param _coinName\r\n    @return index\r\n    */\r\n    function deleteCoin(bytes32 _coinName) public returns(uint index) {\r\n        require(isCoin(_coinName),\"Coin to be deleted does not exist.\");  \r\n        // logical checks expected to be handled by UI (check if it exists as part of product before deletion)\r\n        require(_coinName != \"No Coin\",\"Not allowed to delete 'Initial Coin'\");\r\n        uint rowToDelete = coinStructs[_coinName];\r\n        bytes32 lastkeyToMove = coinIndex[coinIndex.length-1];       \r\n        coinExists[coinIndex.length-1] = false;        \r\n        coinIndex[rowToDelete] = lastkeyToMove;       \r\n        coinIndex.length--;        \r\n        emit LogDeleteCoin(rowToDelete,_coinName);\r\n        emit LogUpdateCoin(rowToDelete,lastkeyToMove);\r\n        return rowToDelete;\r\n    }   \r\n\r\n    // Fallback function - Called if other functions don't match call or\r\n    // sent ether without data\r\n    // Typically, called when invalid data is sent\r\n    // Added so ether sent to this contract is reverted if the contract fails\r\n    // otherwise, the sender's money is transferred to contract\r\n\r\n        /* @title Fallback*/    \r\n        /* @dev fallback function if contract called with no function to force it to revert.\r\n            @return revert\r\n        */      \r\n    function () public {\r\n        revert(\"Contract failure\");\r\n    }\r\n}\r\n\r\n\r\n\r\n    \r\n",
  "sourcePath": "C:\\Active\\BitBucket_Repositories\\Consensys_project\\AncientCoinShop\\contracts\\Coin.sol",
  "compiler": {
    "name": "solc",
    "version": "0.4.24+commit.e67f0147.Emscripten.clang"
  },
  "schemaVersion": "2.0.1",
  "updatedAt": "2018-08-28T09:22:47.275Z"
}