{
  "contractName": "MaintLibrary",
  "abi": [
    {
      "constant": true,
      "inputs": [
        {
          "name": "_bytes32",
          "type": "bytes32"
        }
      ],
      "name": "bytes32ToStr",
      "outputs": [
        {
          "name": "",
          "type": "string"
        }
      ],
      "payable": false,
      "stateMutability": "pure",
      "type": "function"
    }
  ],
  "bytecode": "0x6101f2610030600b82828239805160001a6073146000811461002057610022565bfe5b5030600052607381538281f3007300000000000000000000000000000000000000003014608060405260043610610058576000357c0100000000000000000000000000000000000000000000000000000000900463ffffffff168063ef0b23681461005d575b600080fd5b61007f60048036038101908080356000191690602001909291905050506100fa565b6040518080602001828103825283818151815260200191508051906020019080838360005b838110156100bf5780820151818401526020810190506100a4565b50505050905090810190601f1680156100ec5780820380516001836020036101000a031916815260200191505b509250505060405180910390f35b606080600060206040519080825280601f01601f1916602001820160405280156101335781602001602082028038833980820191505090505b5091505b60208110156101bc57838160208110151561014e57fe5b1a7f010000000000000000000000000000000000000000000000000000000000000002828281518110151561017f57fe5b9060200101907effffffffffffffffffffffffffffffffffffffffffffffffffffffffffffff1916908160001a9053508080600101915050610137565b81925050509190505600a165627a7a72305820e32808b65695c1b9df0d29ece47db35be66b0925da8da2b6a225bd650da843960029",
  "source": "pragma solidity ^0.4.17;\r\n\r\n/* @title MaintLibrary*/\r\nlibrary MaintLibrary {\r\n\r\n    /* @title bytes32ToStr          */\r\n    /* @dev Converts bytes32 to String\r\n    @param _bytes32\r\n    @return string\r\n    */\r\n    function bytes32ToStr(bytes32 _bytes32) public pure returns (string){\r\n        bytes memory bytesArray = new bytes(32);\r\n        for (uint256 i; i < 32; i++) {\r\n            bytesArray[i] = _bytes32[i];        \r\n        }\r\n        return string(bytesArray); \r\n    } \r\n}",
  "sourcePath": "C:\\Active\\BitBucket_Repositories\\Consensys_project\\AncientCoinShop\\contracts\\MaintLibrary.sol",
  "compiler": {
    "name": "solc",
    "version": "0.4.24+commit.e67f0147.Emscripten.clang"
  },
  "schemaVersion": "2.0.1",
  "updatedAt": "2018-08-28T09:22:47.263Z"
}