{
  "contractName": "Product",
  "abi": [
    {
      "inputs": [],
      "payable": false,
      "stateMutability": "nonpayable",
      "type": "constructor"
    },
    {
      "payable": false,
      "stateMutability": "nonpayable",
      "type": "fallback"
    },
    {
      "anonymous": false,
      "inputs": [
        {
          "indexed": true,
          "name": "productName",
          "type": "bytes32"
        },
        {
          "indexed": false,
          "name": "index",
          "type": "uint256"
        },
        {
          "indexed": false,
          "name": "coinid",
          "type": "uint256"
        },
        {
          "indexed": false,
          "name": "ownerid",
          "type": "uint256"
        },
        {
          "indexed": false,
          "name": "ownertype",
          "type": "bytes32"
        },
        {
          "indexed": false,
          "name": "activestatus",
          "type": "bool"
        },
        {
          "indexed": false,
          "name": "quantity",
          "type": "uint256"
        },
        {
          "indexed": false,
          "name": "price",
          "type": "uint256"
        }
      ],
      "name": "LogNewProduct",
      "type": "event"
    },
    {
      "anonymous": false,
      "inputs": [
        {
          "indexed": false,
          "name": "lineno",
          "type": "uint256"
        }
      ],
      "name": "debug",
      "type": "event"
    },
    {
      "anonymous": false,
      "inputs": [
        {
          "indexed": true,
          "name": "productName",
          "type": "bytes32"
        },
        {
          "indexed": false,
          "name": "index",
          "type": "uint256"
        },
        {
          "indexed": false,
          "name": "coinid",
          "type": "uint256"
        },
        {
          "indexed": false,
          "name": "ownerid",
          "type": "uint256"
        },
        {
          "indexed": false,
          "name": "ownertype",
          "type": "bytes32"
        },
        {
          "indexed": false,
          "name": "activestatus",
          "type": "bool"
        },
        {
          "indexed": false,
          "name": "quantity",
          "type": "uint256"
        },
        {
          "indexed": false,
          "name": "price",
          "type": "uint256"
        }
      ],
      "name": "LogUpdateProduct",
      "type": "event"
    },
    {
      "anonymous": false,
      "inputs": [
        {
          "indexed": true,
          "name": "productName",
          "type": "bytes32"
        }
      ],
      "name": "LogDeleteProduct",
      "type": "event"
    },
    {
      "constant": false,
      "inputs": [],
      "name": "kill",
      "outputs": [],
      "payable": false,
      "stateMutability": "nonpayable",
      "type": "function"
    },
    {
      "constant": true,
      "inputs": [
        {
          "name": "_productname",
          "type": "bytes32"
        }
      ],
      "name": "isProduct",
      "outputs": [
        {
          "name": "isIndeed",
          "type": "bool"
        }
      ],
      "payable": false,
      "stateMutability": "view",
      "type": "function"
    },
    {
      "constant": true,
      "inputs": [],
      "name": "getProductCount",
      "outputs": [
        {
          "name": "",
          "type": "uint256"
        }
      ],
      "payable": false,
      "stateMutability": "view",
      "type": "function"
    },
    {
      "constant": true,
      "inputs": [
        {
          "name": "_hashval",
          "type": "bytes32"
        }
      ],
      "name": "UniqueExists",
      "outputs": [
        {
          "name": "",
          "type": "bool"
        }
      ],
      "payable": false,
      "stateMutability": "view",
      "type": "function"
    },
    {
      "constant": true,
      "inputs": [
        {
          "name": "_coinid",
          "type": "uint256"
        },
        {
          "name": "_ownerid",
          "type": "uint256"
        },
        {
          "name": "_ownertype",
          "type": "bytes32"
        }
      ],
      "name": "returnhashval",
      "outputs": [
        {
          "name": "_hashval",
          "type": "bytes32"
        }
      ],
      "payable": false,
      "stateMutability": "pure",
      "type": "function"
    },
    {
      "constant": false,
      "inputs": [
        {
          "name": "_productname",
          "type": "bytes32"
        },
        {
          "name": "_coinid",
          "type": "uint256"
        },
        {
          "name": "_ownerid",
          "type": "uint256"
        },
        {
          "name": "_ownertype",
          "type": "bytes32"
        },
        {
          "name": "_activestatus",
          "type": "bool"
        },
        {
          "name": "_quantity",
          "type": "uint256"
        },
        {
          "name": "_price",
          "type": "uint256"
        }
      ],
      "name": "insertProduct",
      "outputs": [
        {
          "name": "",
          "type": "uint256"
        }
      ],
      "payable": false,
      "stateMutability": "nonpayable",
      "type": "function"
    },
    {
      "constant": true,
      "inputs": [
        {
          "name": "index",
          "type": "uint256"
        }
      ],
      "name": "getproductNameAtIndex",
      "outputs": [
        {
          "name": "",
          "type": "string"
        }
      ],
      "payable": false,
      "stateMutability": "view",
      "type": "function"
    },
    {
      "constant": true,
      "inputs": [
        {
          "name": "index",
          "type": "uint256"
        }
      ],
      "name": "getproductQuantAtIndex",
      "outputs": [
        {
          "name": "",
          "type": "uint256"
        }
      ],
      "payable": false,
      "stateMutability": "view",
      "type": "function"
    },
    {
      "constant": true,
      "inputs": [
        {
          "name": "index",
          "type": "uint256"
        }
      ],
      "name": "getproductPriceAtIndex",
      "outputs": [
        {
          "name": "",
          "type": "uint256"
        }
      ],
      "payable": false,
      "stateMutability": "view",
      "type": "function"
    },
    {
      "constant": true,
      "inputs": [
        {
          "name": "_index",
          "type": "uint256"
        }
      ],
      "name": "getproduct",
      "outputs": [
        {
          "name": "",
          "type": "uint256"
        },
        {
          "name": "",
          "type": "uint256"
        },
        {
          "name": "",
          "type": "bytes32"
        },
        {
          "name": "",
          "type": "bool"
        },
        {
          "name": "",
          "type": "uint256"
        },
        {
          "name": "",
          "type": "uint256"
        }
      ],
      "payable": false,
      "stateMutability": "view",
      "type": "function"
    },
    {
      "constant": false,
      "inputs": [
        {
          "name": "_productname",
          "type": "bytes32"
        },
        {
          "name": "_coinid",
          "type": "uint256"
        },
        {
          "name": "_ownerid",
          "type": "uint256"
        },
        {
          "name": "_ownertype",
          "type": "bytes32"
        },
        {
          "name": "_activestatus",
          "type": "bool"
        },
        {
          "name": "_quantity",
          "type": "uint256"
        },
        {
          "name": "_price",
          "type": "uint256"
        }
      ],
      "name": "updateProduct",
      "outputs": [
        {
          "name": "",
          "type": "bool"
        }
      ],
      "payable": false,
      "stateMutability": "nonpayable",
      "type": "function"
    },
    {
      "constant": false,
      "inputs": [
        {
          "name": "_productindex",
          "type": "uint256"
        }
      ],
      "name": "deleteProductatIndex",
      "outputs": [
        {
          "name": "",
          "type": "bool"
        }
      ],
      "payable": false,
      "stateMutability": "nonpayable",
      "type": "function"
    },
    {
      "constant": false,
      "inputs": [
        {
          "name": "_productname",
          "type": "bytes32"
        }
      ],
      "name": "deleteProduct",
      "outputs": [
        {
          "name": "retindex",
          "type": "uint256"
        }
      ],
      "payable": false,
      "stateMutability": "nonpayable",
      "type": "function"
    },
    {
      "constant": false,
      "inputs": [
        {
          "name": "_productname",
          "type": "bytes32"
        },
        {
          "name": "_coinid",
          "type": "uint256"
        },
        {
          "name": "_ownerid",
          "type": "uint256"
        },
        {
          "name": "_ownertype",
          "type": "bytes32"
        },
        {
          "name": "_activestatus",
          "type": "bool"
        },
        {
          "name": "_quantity",
          "type": "uint256"
        },
        {
          "name": "_price",
          "type": "uint256"
        }
      ],
      "name": "incrementProduct",
      "outputs": [],
      "payable": false,
      "stateMutability": "nonpayable",
      "type": "function"
    },
    {
      "constant": false,
      "inputs": [
        {
          "name": "_productname",
          "type": "bytes32"
        },
        {
          "name": "_coinid",
          "type": "uint256"
        },
        {
          "name": "_ownerid",
          "type": "uint256"
        },
        {
          "name": "_ownertype",
          "type": "bytes32"
        },
        {
          "name": "_activestatus",
          "type": "bool"
        },
        {
          "name": "_quantity",
          "type": "uint256"
        },
        {
          "name": "_price",
          "type": "uint256"
        }
      ],
      "name": "decrementProduct",
      "outputs": [],
      "payable": false,
      "stateMutability": "nonpayable",
      "type": "function"
    }
  ],
  "bytecode": "0x608060405233600460006101000a81548173ffffffffffffffffffffffffffffffffffffffff021916908373ffffffffffffffffffffffffffffffffffffffff1602179055503480156200005257600080fd5b50620000b67f496e697469616c20284e6f292050726f647563740000000000000000000000006000807f53484f50000000000000000000000000000000000000000000000000000000006001600080620000bd640100000000026401000000009004565b50620004fb565b6000806000620000dc8a6200047e640100000000026401000000009004565b15151562000152576040517f08c379a00000000000000000000000000000000000000000000000000000000081526004018080602001828103825260178152602001807f50726f6475637420616c7265616479206578697374732e00000000000000000081525060200191505060405180910390fd5b88888860405160200180848152602001838152602001826000191660001916815260200193505050506040516020818303038152906040526040518082805190602001908083835b602083101515620001c157805182526020820191506020810190506020830392506200019a565b6001836020036101000a038019825116818451168082178552505050505050905001915050604051809103902091506200020a82620004c9640100000000026401000000009004565b151515620002cc576040517f08c379a00000000000000000000000000000000000000000000000000000000081526004018080602001828103825260428152602001807f50726f6475637420636f6d62696e6174696f6e206f6620636f696e69642c6f7781526020017f6e6572696420616e64206f776e65727479706520616c7265616479206578697381526020017f747300000000000000000000000000000000000000000000000000000000000081525060600191505060405180910390fd5b6001808b90806001815401808255809150509060018203906000526020600020016000909192909190915090600019169055039050806000808c6000191660001916815260200190815260200160002060000181905550886000808c6000191660001916815260200190815260200160002060010181905550876000808c6000191660001916815260200190815260200160002060020181905550866000808c600019166000191681526020019081526020016000206003018160001916905550856000808c6000191660001916815260200190815260200160002060040160006101000a81548160ff021916908315150217905550846000808c6000191660001916815260200190815260200160002060050181905550836000808c6000191660001916815260200190815260200160002060060181905550600160036000846000191660001916815260200190815260200160002060006101000a81548160ff0219169083151502179055506001600260008c6000191660001916815260200190815260200160002060006101000a81548160ff0219169083151502179055508092505050979650505050505050565b6000806001805490501415620004985760009050620004c4565b60026000836000191660001916815260200190815260200160002060009054906101000a900460ff1690505b919050565b600060036000836000191660001916815260200190815260200160002060009054906101000a900460ff169050919050565b611b69806200050b6000396000f3006080604052600436106100db576000357c0100000000000000000000000000000000000000000000000000000000900463ffffffff1680630c4b98a81461015657806335ed2b5114610197578063399c9dd31461020a5780633b07ac541461025357806341c0e1b5146102da5780634a348da9146102f15780635f65faf11461031c578063834c09d11461036557806394727b41146103d85780639700daf01461041d578063b7370b531461045e578063cee7a713146104a3578063e4c11f5f14610504578063f008ef18146105aa578063f4d703b21461061a575b3480156100e757600080fd5b506040517f08c379a00000000000000000000000000000000000000000000000000000000081526004018080602001828103825260108152602001807f436f6e7472616374206661696c7572650000000000000000000000000000000081525060200191505060405180910390fd5b34801561016257600080fd5b50610181600480360381019080803590602001909291905050506106a5565b6040518082815260200191505060405180910390f35b3480156101a357600080fd5b5061020860048036038101908080356000191690602001909291908035906020019092919080359060200190929190803560001916906020019092919080351515906020019092919080359060200190929190803590602001909291905050506106e5565b005b34801561021657600080fd5b506102396004803603810190808035600019169060200190929190505050610864565b604051808215151515815260200191505060405180910390f35b34801561025f57600080fd5b506102c46004803603810190808035600019169060200190929190803590602001909291908035906020019092919080356000191690602001909291908035151590602001909291908035906020019092919080359060200190929190505050610896565b6040518082815260200191505060405180910390f35b3480156102e657600080fd5b506102ef610c31565b005b3480156102fd57600080fd5b50610306610cc4565b6040518082815260200191505060405180910390f35b34801561032857600080fd5b5061034b6004803603810190808035600019169060200190929190505050610cd1565b604051808215151515815260200191505060405180910390f35b34801561037157600080fd5b506103d66004803603810190808035600019169060200190929190803590602001909291908035906020019092919080356000191690602001909291908035151590602001909291908035906020019092919080359060200190929190505050610d1a565b005b3480156103e457600080fd5b506104076004803603810190808035600019169060200190929190505050610e1a565b6040518082815260200191505060405180910390f35b34801561042957600080fd5b5061044860048036038101908080359060200190929190505050611207565b6040518082815260200191505060405180910390f35b34801561046a57600080fd5b5061048960048036038101908080359060200190929190505050611247565b604051808215151515815260200191505060405180910390f35b3480156104af57600080fd5b506104e66004803603810190808035906020019092919080359060200190929190803560001916906020019092919050505061133d565b60405180826000191660001916815260200191505060405180910390f35b34801561051057600080fd5b5061052f600480360381019080803590602001909291905050506113e2565b6040518080602001828103825283818151815260200191508051906020019080838360005b8381101561056f578082015181840152602081019050610554565b50505050905090810190601f16801561059c5780820380516001836020036101000a031916815260200191505b509250505060405180910390f35b3480156105b657600080fd5b506105d560048036038101908080359060200190929190505050611508565b60405180878152602001868152602001856000191660001916815260200184151515158152602001838152602001828152602001965050505050505060405180910390f35b34801561062657600080fd5b5061068b600480360381019080803560001916906020019092919080359060200190929190803590602001909291908035600019169060200190929190803515159060200190929190803590602001909291908035906020019092919050505061167d565b604051808215151515815260200191505060405180910390f35b60008060006001848154811015156106b957fe5b906000526020600020015460001916600019168152602001908152602001600020600601549050919050565b60008087878760405160200180848152602001838152602001826000191660001916815260200193505050506040516020818303038152906040526040518082805190602001908083835b6020831015156107555780518252602082019150602081019050602083039250610730565b6001836020036101000a0380198251168184511680821785525050505050509050019150506040518091039020915061078d82610864565b1515610827576040517f08c379a00000000000000000000000000000000000000000000000000000000081526004018080602001828103825260298152602001807f50726f6475637420746f2062652064656372656d656e74656420646f6573206e81526020017f6f742065786973742e000000000000000000000000000000000000000000000081525060400191505060405180910390fd5b836000808b60001916600019168152602001908152602001600020600501540390506108588989898989868961167d565b50505050505050505050565b600060036000836000191660001916815260200190815260200160002060009054906101000a900460ff169050919050565b60008060006108a48a610cd1565b151515610919576040517f08c379a00000000000000000000000000000000000000000000000000000000081526004018080602001828103825260178152602001807f50726f6475637420616c7265616479206578697374732e00000000000000000081525060200191505060405180910390fd5b88888860405160200180848152602001838152602001826000191660001916815260200193505050506040516020818303038152906040526040518082805190602001908083835b6020831015156109865780518252602082019150602081019050602083039250610961565b6001836020036101000a038019825116818451168082178552505050505050905001915050604051809103902091506109be82610864565b151515610a7f576040517f08c379a00000000000000000000000000000000000000000000000000000000081526004018080602001828103825260428152602001807f50726f6475637420636f6d62696e6174696f6e206f6620636f696e69642c6f7781526020017f6e6572696420616e64206f776e65727479706520616c7265616479206578697381526020017f747300000000000000000000000000000000000000000000000000000000000081525060600191505060405180910390fd5b6001808b90806001815401808255809150509060018203906000526020600020016000909192909190915090600019169055039050806000808c6000191660001916815260200190815260200160002060000181905550886000808c6000191660001916815260200190815260200160002060010181905550876000808c6000191660001916815260200190815260200160002060020181905550866000808c600019166000191681526020019081526020016000206003018160001916905550856000808c6000191660001916815260200190815260200160002060040160006101000a81548160ff021916908315150217905550846000808c6000191660001916815260200190815260200160002060050181905550836000808c6000191660001916815260200190815260200160002060060181905550600160036000846000191660001916815260200190815260200160002060006101000a81548160ff0219169083151502179055506001600260008c6000191660001916815260200190815260200160002060006101000a81548160ff0219169083151502179055508092505050979650505050505050565b600460009054906101000a900473ffffffffffffffffffffffffffffffffffffffff1673ffffffffffffffffffffffffffffffffffffffff163373ffffffffffffffffffffffffffffffffffffffff161415610cc257600460009054906101000a900473ffffffffffffffffffffffffffffffffffffffff1673ffffffffffffffffffffffffffffffffffffffff16ff5b565b6000600180549050905090565b6000806001805490501415610ce95760009050610d15565b60026000836000191660001916815260200190815260200160002060009054906101000a900460ff1690505b919050565b60008087878760405160200180848152602001838152602001826000191660001916815260200193505050506040516020818303038152906040526040518082805190602001908083835b602083101515610d8a5780518252602082019150602081019050602083039250610d65565b6001836020036101000a03801982511681845116808217855250505050505090500191505060405180910390209150610dc282610864565b15610dfe57836000808b6000191660001916815260200190815260200160002060050154019050610df88989898989868961167d565b50610e0f565b610e0d89898989898989610896565b505b505050505050505050565b600080600080610e2985610cd1565b1515610ec3576040517f08c379a00000000000000000000000000000000000000000000000000000000081526004018080602001828103825260258152602001807f50726f6475637420746f2062652064656c6574656420646f6573206e6f74206581526020017f786973742e00000000000000000000000000000000000000000000000000000081525060400191505060405180910390fd5b6000808660001916600019168152602001908152602001600020600001549250600180808054905003815481101515610ef857fe5b90600052602060002001549150600060026000876000191660001916815260200190815260200160002060006101000a81548160ff02191690831515021790555060008086600019166000191681526020019081526020016000206001015460008087600019166000191681526020019081526020016000206002015460008088600019166000191681526020019081526020016000206003015460405160200180848152602001838152602001826000191660001916815260200193505050506040516020818303038152906040526040518082805190602001908083835b602083101515610ffd5780518252602082019150602081019050602083039250610fd8565b6001836020036101000a03801982511681845116808217855250505050505090500191505060405180910390209050600060036000836000191660001916815260200190815260200160002060006101000a81548160ff0219169083151502179055508160018481548110151561107057fe5b90600052602060002001816000191690555060018054809190600190036110979190611aec565b5084600019167f2642fdf0066a321e5e2b03df136c4aa550ebb1d0ae301f0ed0096da21415b34660405160405180910390a281600019167f0fc8192272fde086ec2ec5dfe4ed21214ebfd8ce26d905551113f31f0dafdb7b84600080866000191660001916815260200190815260200160002060010154600080876000191660001916815260200190815260200160002060020154600080886000191660001916815260200190815260200160002060030154600080896000191660001916815260200190815260200160002060040160009054906101000a900460ff166000808a60001916600019168152602001908152602001600020600501546000808b60001916600019168152602001908152602001600020600601546040518088815260200187815260200186815260200185600019166000191681526020018415151515815260200183815260200182815260200197505050505050505060405180910390a2829350505050919050565b600080600060018481548110151561121b57fe5b906000526020600020015460001916600019168152602001908152602001600020600501549050919050565b60008060018381548110151561125957fe5b9060005260206000200154905060026000826000191660001916815260200190815260200160002060009054906101000a900460ff161515611329576040517f08c379a00000000000000000000000000000000000000000000000000000000081526004018080602001828103825260258152602001807f50726f6475637420746f2062652064656c6574656420646f6573206e6f74206581526020017f786973742e00000000000000000000000000000000000000000000000000000081525060400191505060405180910390fd5b61133281610e1a565b506001915050919050565b600083838360405160200180848152602001838152602001826000191660001916815260200193505050506040516020818303038152906040526040518082805190602001908083835b6020831015156113ac5780518252602082019150602081019050602083039250611387565b6001836020036101000a038019825116818451168082178552505050505050905001915050604051809103902090509392505050565b606073__MaintLibrary__________________________63ef0b236860018481548110151561140d57fe5b90600052602060002001546040518263ffffffff167c010000000000000000000000000000000000000000000000000000000002815260040180826000191660001916815260200191505060006040518083038186803b15801561147057600080fd5b505af4158015611484573d6000803e3d6000fd5b505050506040513d6000823e3d601f19601f8201168201806040525060208110156114ae57600080fd5b8101908080516401000000008111156114c657600080fd5b828101905060208101848111156114dc57600080fd5b81518560018202830111640100000000821117156114f957600080fd5b50509291905050509050919050565b60008060008060008060008060018981548110151561152357fe5b9060005260206000200154600019166000191681526020019081526020016000206001015460008060018a81548110151561155a57fe5b9060005260206000200154600019166000191681526020019081526020016000206002015460008060018b81548110151561159157fe5b9060005260206000200154600019166000191681526020019081526020016000206003015460008060018c8154811015156115c857fe5b90600052602060002001546000191660001916815260200190815260200160002060040160009054906101000a900460ff1660008060018d81548110151561160c57fe5b9060005260206000200154600019166000191681526020019081526020016000206005015460008060018e81548110151561164357fe5b9060005260206000200154600019166000191681526020019081526020016000206006015495509550955095509550955091939550919395565b600080600061168b8a610cd1565b15156116ff576040517f08c379a00000000000000000000000000000000000000000000000000000000081526004018080602001828103825260178152602001807f50726f6475637420646f6573206e6f742065786973742e00000000000000000081525060200191505060405180910390fd5b88888860405160200180848152602001838152602001826000191660001916815260200193505050506040516020818303038152906040526040518082805190602001908083835b60208310151561176c5780518252602082019150602081019050602083039250611747565b6001836020036101000a038019825116818451168082178552505050505050905001915050604051809103902091506000808b60001916600019168152602001908152602001600020600101546000808c60001916600019168152602001908152602001600020600201546000808d600019166000191681526020019081526020016000206003015460405160200180848152602001838152602001826000191660001916815260200193505050506040516020818303038152906040526040518082805190602001908083835b60208310151561185f578051825260208201915060208101905060208303925061183a565b6001836020036101000a03801982511681845116808217855250505050505090500191505060405180910390209050816000191681600019161415156119f8576118a882610864565b15151561198f576040517f08c379a00000000000000000000000000000000000000000000000000000000081526004018080602001828103825260718152602001807f4e65772050726f6475637420636f6d62696e6174696f6e206f6620636f696e6981526020017f642c6f776e6572696420616e64206f776e65727479706520616c72656164792081526020017f6578697374732c20726174686572206368616e6765207175616e7420616e642081526020017f7072696365206f662074686174206f6e6500000000000000000000000000000081525060800191505060405180910390fd5b600060036000836000191660001916815260200190815260200160002060006101000a81548160ff021916908315150217905550600160036000846000191660001916815260200190815260200160002060006101000a81548160ff0219169083151502179055505b886000808c6000191660001916815260200190815260200160002060010181905550876000808c6000191660001916815260200190815260200160002060020181905550866000808c600019166000191681526020019081526020016000206003018160001916905550856000808c6000191660001916815260200190815260200160002060040160006101000a81548160ff021916908315150217905550846000808c6000191660001916815260200190815260200160002060050181905550836000808c6000191660001916815260200190815260200160002060060181905550600192505050979650505050505050565b815481835581811115611b1357818360005260206000209182019101611b129190611b18565b5b505050565b611b3a91905b80821115611b36576000816000905550600101611b1e565b5090565b905600a165627a7a7230582012716b36259d06b76112eda3541dfef9c2dcb5540bdc7be946d48dffdc9a47e60029",
  "source": "pragma solidity ^0.4.17;\r\n\r\nimport { MaintLibrary } from \"./MaintLibrary.sol\";\r\n/* @title Product*/\r\ncontract Product  {   \r\n\r\n    struct ProductStruct {\r\n        uint index;\r\n        uint coinId; \r\n        uint ownerId; \r\n        bytes32 ownerType ;\r\n        bool ActiveStatus;\r\n        uint Quantity;\r\n        uint Price;  // in wei\r\n    } \r\n\r\n    mapping(bytes32=> ProductStruct) productStructs;\r\n    bytes32[] productIndex;\r\n    mapping(bytes32 => bool)  productExists;\r\n    mapping(bytes32 => bool)  uniqueProds; \r\n    address owner = msg.sender;    \r\n\r\n    mapping(address=>ProductStruct) buyerStructs;\r\n    address[] buyerIndex;\r\n\r\n    event LogNewProduct (bytes32 indexed productName, uint index, uint coinid, uint ownerid, \r\n    bytes32 ownertype, bool activestatus, uint quantity, uint price);\r\n\r\n    event debug (uint lineno);\r\n\r\n    event LogUpdateProduct (bytes32 indexed productName, uint index, uint coinid, uint ownerid, \r\n    bytes32 ownertype, bool activestatus, uint quantity, uint price);\r\n\r\n    event LogDeleteProduct (bytes32 indexed productName );\r\n  \r\n    //Constructor\r\n    constructor() public {            \r\n        // Adds a default entry so tests can checked for > 0\r\n        insertProduct(\"Initial (No) Product\",0,0,\"SHOP\",true,0,0);                \r\n    }\r\n\r\n    // Kill contract function\r\n    /* @title kill*/\r\n    /* @dev kills contract      \r\n    */  \r\n    function kill() public { \r\n        if(msg.sender == owner) {\r\n            selfdestruct(owner); \r\n        }\r\n    }\r\n\r\n    /* @title  isProduct        */\r\n    /* @dev checks for product existense via productname\r\n    @param  _productname\r\n    @return  isIndeed\r\n    */\r\n    function isProduct(bytes32 _productname) public view returns(bool isIndeed)\r\n    {\r\n        if(productIndex.length == 0) return false;\r\n        return (productExists[_productname]);\r\n    }\r\n\r\n\r\n    /* @title    getProductCount      */\r\n    /* @dev returns productindex length\r\n    @return uint\r\n    */\r\n    function getProductCount() public view returns(uint ) {\r\n        return productIndex.length;\r\n    } \r\n\r\n\r\n    /* @title   UniqueExists        */\r\n    /* @dev  checks if hashval exists\r\n    @param _hashval\r\n    @return bool\r\n    */\r\n    function UniqueExists(bytes32 _hashval) public view returns (bool) {\r\n        return uniqueProds[_hashval];\r\n    }\r\n\r\n    /* @title  returnhashval        */\r\n    /* @dev helper function which returns hashval of 3 columns\r\n    @param _coinid\r\n    @param _ownerid\r\n    @param _ownertype\r\n    @return _hashval\r\n    */\r\n    function returnhashval(uint _coinid, uint _ownerid , bytes32 _ownertype) public pure  returns (bytes32 _hashval) {\r\n        return   keccak256(abi.encodePacked(_coinid,_ownerid,_ownertype));     \r\n    }\r\n\r\n    /* @title  insertProduct        */\r\n    /* @dev inserts product details\r\n    @param _productname,       \r\n    @param _coinid,\r\n    @param _ownerid,\r\n    @param _ownertype,\r\n    @param _activestatus,\r\n    @param _quantity,\r\n    @param _price\r\n    @return uint\r\n    */\r\n    function insertProduct(        \r\n        bytes32 _productname,       \r\n        uint _coinid,\r\n        uint _ownerid,\r\n        bytes32 _ownertype,\r\n        bool _activestatus,\r\n        uint _quantity,\r\n        uint _price\r\n        )  public returns(uint) {  \r\n        require(!isProduct(_productname),\"Product already exists.\");\r\n        // referential integrity checking expected to be handled by calling app.\r\n        bytes32 hashval = keccak256(abi.encodePacked(_coinid,_ownerid,_ownertype));\r\n        require(!UniqueExists(hashval),\"Product combination of coinid,ownerid and ownertype already exists\");\r\n        uint newindex = productIndex.push(_productname)-1;\r\n        productStructs[_productname].index = newindex;\r\n        productStructs[_productname].coinId = _coinid; \r\n        productStructs[_productname].ownerId = _ownerid;    \r\n        productStructs[_productname].ownerType = _ownertype;\r\n        productStructs[_productname].ActiveStatus = _activestatus;\r\n        productStructs[_productname].Quantity = _quantity;    \r\n        productStructs[_productname].Price = _price;\r\n        uniqueProds[hashval] = true;\r\n        productExists[_productname] = true;      \r\n        return newindex;\r\n    } \r\n\r\n    /* @title   getproductNameAtIndex       */\r\n    /* @dev returns productname via index lookup\r\n    @param index \r\n    @return string\r\n    */\r\n    function getproductNameAtIndex(uint index) public view returns (string ) {\r\n        return MaintLibrary.bytes32ToStr(productIndex[index]);\r\n    }\r\n\r\n\r\n\r\n    /* @title   getproductQuantAtIndex       */\r\n    /* @dev returns product quantity via index lookup\r\n    @param index\r\n    @return uint\r\n    */\r\n    function getproductQuantAtIndex(uint index) public view returns (uint) {\r\n        return(productStructs[productIndex[index]].Quantity);\r\n    }\r\n\r\n\r\n    /* @title  getproductPriceAtIndex        */\r\n    /* @dev returns product price via index lookup\r\n    @param index\r\n    @return uint\r\n    */\r\n    function getproductPriceAtIndex(uint index) public view returns (uint) {\r\n        return(productStructs[productIndex[index]].Price);\r\n    }\r\n\r\n\r\n    /* @title  getproduct        */\r\n    /* @dev returns contents of product struct as array via index lookup\r\n    @param index \r\n    @return coinId,\r\n    @return ownerId,\r\n    @return ownerType,\r\n    @return ActiveStatus,\r\n    @return Quantity,\r\n    @return Price\r\n    */\r\n    function getproduct(uint _index) public view returns (uint,uint,bytes32,bool,uint,uint) {\r\n\r\n        return (\r\n            productStructs[productIndex[_index]].coinId,\r\n            productStructs[productIndex[_index]].ownerId,\r\n            productStructs[productIndex[_index]].ownerType,\r\n            productStructs[productIndex[_index]].ActiveStatus,\r\n            productStructs[productIndex[_index]].Quantity,\r\n            productStructs[productIndex[_index]].Price\r\n        );\r\n    }\r\n\r\n    /* @title   updateProduct        */\r\n    /* @dev updates product details\r\n    @param _productname,       \r\n    @param _coinid,\r\n    @param _ownerid,\r\n    @param _ownertype,\r\n    @param _activestatus,\r\n    @param _quantity,\r\n    @param _price\r\n    @return bool\r\n    */\r\n    function updateProduct(    \r\n        bytes32 _productname,       \r\n        uint _coinid,\r\n        uint _ownerid,\r\n        bytes32 _ownertype,\r\n        bool _activestatus,\r\n        uint _quantity,\r\n        uint _price\r\n        )  public returns(bool) {  \r\n        require(isProduct(_productname),\"Product does not exist.\");        \r\n        // referential integrity checking expected to be handled by calling app.\r\n        // also, ownership address verification would have to be handled by app because it links to shop or shopper..\r\n        bytes32 newhashval = keccak256(abi.encodePacked(_coinid,_ownerid,_ownertype));         \r\n        bytes32 oldhashval = keccak256(\r\n            abi.encodePacked\r\n            ( \r\n            productStructs[_productname].coinId,\r\n            productStructs[_productname].ownerId,\r\n            productStructs[_productname].ownerType)\r\n            );\r\n        if ( oldhashval != newhashval) {\r\n            require(!UniqueExists(newhashval),\"New Product combination of coinid,ownerid and ownertype already exists, rather change quant and price of that one\");  \r\n            uniqueProds[oldhashval] = false; \r\n            uniqueProds[newhashval] = true; \r\n        }  \r\n        productStructs[_productname].coinId = _coinid; \r\n        productStructs[_productname].ownerId = _ownerid;    \r\n        productStructs[_productname].ownerType = _ownertype;\r\n        productStructs[_productname].ActiveStatus = _activestatus;\r\n        productStructs[_productname].Quantity = _quantity;    \r\n        productStructs[_productname].Price = _price;\r\n        return true;\r\n        // emits\r\n    }\r\n\r\n    /* @title     deleteProductatIndex     */\r\n    /* @dev deletes product based on index access\r\n    @param  _productindex\r\n    @return bool\r\n    */\r\n    function deleteProductatIndex(uint _productindex) public returns (bool) {\r\n        bytes32 prodName = productIndex[_productindex];\r\n        require(productExists[prodName], \"Product to be deleted does not exist.\"); \r\n        deleteProduct(prodName);  \r\n        return true;\r\n    }\r\n\r\n    /* @title  deleteProduct        */\r\n    /* @dev deletes product based on Name access\r\n    @param _productname\r\n    @return retindex\r\n    */\r\n    function deleteProduct(bytes32 _productname) public returns(uint retindex) {\r\n        // referential integrity checking expected to be handled by calling app.\r\n        // also, ownership address verification would have to be handled by app because it links to shop or shopper..\r\n        require(isProduct(_productname),\"Product to be deleted does not exist.\");       \r\n        uint rowToDelete = productStructs[_productname].index;\r\n        bytes32 lastkeyToMove = productIndex[productIndex.length-1];\r\n        productExists[_productname] = false; \r\n        bytes32 oldhashval = keccak256(\r\n            abi.encodePacked\r\n            ( \r\n            productStructs[_productname].coinId,\r\n            productStructs[_productname].ownerId,\r\n            productStructs[_productname].ownerType)\r\n            );  \r\n        uniqueProds[oldhashval] = false;\r\n        productIndex[rowToDelete] = lastkeyToMove; \r\n        productIndex.length--;        \r\n        emit LogDeleteProduct(_productname);        \r\n        emit LogUpdateProduct(\r\n            lastkeyToMove,\r\n            rowToDelete,\r\n            productStructs[lastkeyToMove].coinId, \r\n            productStructs[lastkeyToMove].ownerId,\r\n            productStructs[lastkeyToMove].ownerType,\r\n            productStructs[lastkeyToMove].ActiveStatus,\r\n            productStructs[lastkeyToMove].Quantity,\r\n            productStructs[lastkeyToMove].Price);        \r\n        return rowToDelete;\r\n    }\r\n\r\n    /* @title   incrementProduct       */\r\n    /* @dev increments quantity of a product (owned by shopper) when purchased\r\n    @param _productname\r\n    @param _coinid,\r\n    @param _ownerid,\r\n    @param _ownertype,\r\n    @param _activestatus,\r\n    @param _quantity,\r\n    @param _price\r\n    */\r\n    function incrementProduct(bytes32 _productname,uint _coinid,uint _ownerid,bytes32 _ownertype,bool _activestatus,uint _quantity,uint _price) public  \r\n    {\r\n        bytes32 hashval = keccak256(abi.encodePacked(_coinid, _ownerid,_ownertype));\r\n        // event log handled by called function\r\n        if (UniqueExists(hashval)) {  \r\n            // update existing product\r\n            uint newquant = productStructs[_productname].Quantity + _quantity;\r\n            updateProduct(_productname,_coinid,_ownerid,_ownertype,_activestatus,newquant,_price);\r\n        } else {  \r\n           // insert new product       \r\n            insertProduct(_productname, _coinid, _ownerid, _ownertype, _activestatus,_quantity, _price);\r\n        }\r\n    } \r\n\r\n    /* @title   decrementProduct       */\r\n    /* @dev decrements quantity of a product (owned by shop) when sold\r\n    @param _productname\r\n    @param _coinid,\r\n    @param _ownerid,\r\n    @param _ownertype,\r\n    @param _activestatus,\r\n    @param _quantity,\r\n    @param _price\r\n    */\r\n    function decrementProduct(\r\n        bytes32 _productname,uint _coinid,uint _ownerid,bytes32 _ownertype,bool _activestatus,uint _quantity,uint _price) public  \r\n    {\r\n        bytes32 hashval = keccak256(abi.encodePacked(_coinid, _ownerid,_ownertype));\r\n        require(UniqueExists(hashval),\"Product to be decremented does not exist.\");  \r\n        // update existing product\r\n        uint newquant = productStructs[_productname].Quantity - _quantity;\r\n        // event log handled by called function\r\n        updateProduct(_productname,_coinid,_ownerid,_ownertype,_activestatus,newquant,_price);       \r\n    } \r\n\r\n\r\n\r\n    // Fallback function - Called if other functions don't match call or\r\n    // sent ether without data\r\n    // Typically, called when invalid data is sent\r\n    // Added so ether sent to this contract is reverted if the contract fails\r\n    // otherwise, the sender's money is transferred to contract\r\n\r\n    /* @title Fallback*/    \r\n    /* @dev fallback function if contract called with no function to force it to revert.\r\n    @return revert\r\n    */   \r\n    function () public {\r\n        revert(\"Contract failure\");\r\n    }      \r\n}",
  "sourcePath": "C:\\Active\\BitBucket_Repositories\\Consensys_project\\AncientCoinShop\\contracts\\Product.sol",
  "compiler": {
    "name": "solc",
    "version": "0.4.24+commit.e67f0147.Emscripten.clang"
  },
  "schemaVersion": "2.0.1",
  "updatedAt": "2018-08-28T09:22:47.292Z"
}