{
  "contractName": "Shopkeep",
  "abi": [
    {
      "constant": true,
      "inputs": [
        {
          "name": "",
          "type": "uint256"
        }
      ],
      "name": "shopkeepIndex",
      "outputs": [
        {
          "name": "",
          "type": "address"
        }
      ],
      "payable": false,
      "stateMutability": "view",
      "type": "function"
    },
    {
      "constant": true,
      "inputs": [
        {
          "name": "",
          "type": "address"
        }
      ],
      "name": "shopkeepStructs",
      "outputs": [
        {
          "name": "Name",
          "type": "bytes32"
        },
        {
          "name": "index",
          "type": "uint256"
        }
      ],
      "payable": false,
      "stateMutability": "view",
      "type": "function"
    },
    {
      "inputs": [],
      "payable": false,
      "stateMutability": "nonpayable",
      "type": "constructor"
    },
    {
      "payable": false,
      "stateMutability": "nonpayable",
      "type": "fallback"
    },
    {
      "anonymous": false,
      "inputs": [
        {
          "indexed": true,
          "name": "shopkeepAddress",
          "type": "address"
        },
        {
          "indexed": false,
          "name": "index",
          "type": "uint256"
        },
        {
          "indexed": false,
          "name": "Name",
          "type": "bytes32"
        }
      ],
      "name": "LogNewShopkeep",
      "type": "event"
    },
    {
      "anonymous": false,
      "inputs": [
        {
          "indexed": true,
          "name": "shopkeepAddress",
          "type": "address"
        },
        {
          "indexed": false,
          "name": "index",
          "type": "uint256"
        },
        {
          "indexed": false,
          "name": "Name",
          "type": "bytes32"
        }
      ],
      "name": "LogUpdateShopkeep",
      "type": "event"
    },
    {
      "anonymous": false,
      "inputs": [
        {
          "indexed": true,
          "name": "shopkeepAddress",
          "type": "address"
        }
      ],
      "name": "LogDeleteShopkeep",
      "type": "event"
    },
    {
      "constant": false,
      "inputs": [],
      "name": "kill",
      "outputs": [],
      "payable": false,
      "stateMutability": "nonpayable",
      "type": "function"
    },
    {
      "constant": true,
      "inputs": [],
      "name": "getShopkeepIndexLength",
      "outputs": [
        {
          "name": "",
          "type": "uint256"
        }
      ],
      "payable": false,
      "stateMutability": "view",
      "type": "function"
    },
    {
      "constant": true,
      "inputs": [
        {
          "name": "_id",
          "type": "uint256"
        }
      ],
      "name": "getShopKeepNameAddr",
      "outputs": [
        {
          "name": "_thisname",
          "type": "string"
        },
        {
          "name": "_thisaddress",
          "type": "address"
        }
      ],
      "payable": false,
      "stateMutability": "view",
      "type": "function"
    },
    {
      "constant": true,
      "inputs": [
        {
          "name": "_shopkeepAddress",
          "type": "address"
        }
      ],
      "name": "isShopKeep",
      "outputs": [
        {
          "name": "isIndeed",
          "type": "bool"
        }
      ],
      "payable": false,
      "stateMutability": "view",
      "type": "function"
    },
    {
      "constant": false,
      "inputs": [
        {
          "name": "_shopkeepAddress",
          "type": "address"
        },
        {
          "name": "_name",
          "type": "bytes32"
        }
      ],
      "name": "insertShopkeep",
      "outputs": [
        {
          "name": "newindex",
          "type": "uint256"
        }
      ],
      "payable": false,
      "stateMutability": "nonpayable",
      "type": "function"
    },
    {
      "constant": false,
      "inputs": [
        {
          "name": "_shopkeepAddress",
          "type": "address"
        }
      ],
      "name": "deleteShopkeep",
      "outputs": [
        {
          "name": "_index",
          "type": "uint256"
        }
      ],
      "payable": false,
      "stateMutability": "nonpayable",
      "type": "function"
    },
    {
      "constant": false,
      "inputs": [
        {
          "name": "_shopkeepAddress",
          "type": "address"
        },
        {
          "name": "_name",
          "type": "bytes32"
        }
      ],
      "name": "updateShopkeepName",
      "outputs": [
        {
          "name": "success",
          "type": "bool"
        }
      ],
      "payable": false,
      "stateMutability": "nonpayable",
      "type": "function"
    },
    {
      "constant": true,
      "inputs": [
        {
          "name": "_index",
          "type": "uint256"
        }
      ],
      "name": "getShopkeepNameAtIndex",
      "outputs": [
        {
          "name": "",
          "type": "string"
        }
      ],
      "payable": false,
      "stateMutability": "view",
      "type": "function"
    },
    {
      "constant": true,
      "inputs": [
        {
          "name": "_index",
          "type": "uint256"
        }
      ],
      "name": "getShopkeepAtIndex",
      "outputs": [
        {
          "name": "",
          "type": "address"
        }
      ],
      "payable": false,
      "stateMutability": "view",
      "type": "function"
    },
    {
      "constant": true,
      "inputs": [
        {
          "name": "_shopkeepaddr",
          "type": "address"
        }
      ],
      "name": "getShopkeepIdatAddr",
      "outputs": [
        {
          "name": "",
          "type": "uint256"
        }
      ],
      "payable": false,
      "stateMutability": "view",
      "type": "function"
    }
  ],
  "bytecode": "0x608060405233600260006101000a81548173ffffffffffffffffffffffffffffffffffffffff021916908373ffffffffffffffffffffffffffffffffffffffff16021790555034801561005157600080fd5b5061008b337f53686f704b6565702030000000000000000000000000000000000000000000006100df640100000000026401000000009004565b506100d973eaf418b2f021c73f77b7506639220a46f65bd7f07f53686f706b6565702031000000000000000000000000000000000000000000006100df640100000000026401000000009004565b50610397565b60006100f9836102ce640100000000026401000000009004565b15151561016e576040517f08c379a00000000000000000000000000000000000000000000000000000000081526004018080602001828103825260188152602001807f53686f706b65657020616c7265616479206578697374732e000000000000000081525060200191505060405180910390fd5b816000808573ffffffffffffffffffffffffffffffffffffffff1673ffffffffffffffffffffffffffffffffffffffff16815260200190815260200160002060000181600019169055506001808490806001815401808255809150509060018203906000526020600020016000909192909190916101000a81548173ffffffffffffffffffffffffffffffffffffffff021916908373ffffffffffffffffffffffffffffffffffffffff160217905550039050806000808573ffffffffffffffffffffffffffffffffffffffff1673ffffffffffffffffffffffffffffffffffffffff168152602001908152602001600020600101819055508273ffffffffffffffffffffffffffffffffffffffff167f9457cfaaf076b33a18bc5b3cf0d47bb8c4e51603a49ea0813880194ad6bbd9b782846040518083815260200182600019166000191681526020019250505060405180910390a280905092915050565b60008060018054905014156102e65760009050610392565b8173ffffffffffffffffffffffffffffffffffffffff1660016000808573ffffffffffffffffffffffffffffffffffffffff1673ffffffffffffffffffffffffffffffffffffffff1681526020019081526020016000206001015481548110151561034d57fe5b9060005260206000200160009054906101000a900473ffffffffffffffffffffffffffffffffffffffff1673ffffffffffffffffffffffffffffffffffffffff161490505b919050565b6110ce806103a66000396000f3006080604052600436106100ba576000357c0100000000000000000000000000000000000000000000000000000000900463ffffffff1680631868c6b9146101355780632664f97e14610160578063297fd9f5146101b757806341c0e1b5146102245780635d4e99611461023b578063889617e7146102e15780639617e5a214610338578063cabcd75f14610411578063e31db14514610477578063e6eeaa26146104e4578063f0893d4314610549578063f5671e31146105b2575b3480156100c657600080fd5b506040517f08c379a00000000000000000000000000000000000000000000000000000000081526004018080602001828103825260108152602001807f436f6e7472616374206661696c7572650000000000000000000000000000000081525060200191505060405180910390fd5b34801561014157600080fd5b5061014a61060d565b6040518082815260200191505060405180910390f35b34801561016c57600080fd5b506101a1600480360381019080803573ffffffffffffffffffffffffffffffffffffffff16906020019092919050505061061a565b6040518082815260200191505060405180910390f35b3480156101c357600080fd5b506101e260048036038101908080359060200190929190505050610665565b604051808273ffffffffffffffffffffffffffffffffffffffff1673ffffffffffffffffffffffffffffffffffffffff16815260200191505060405180910390f35b34801561023057600080fd5b506102396106a3565b005b34801561024757600080fd5b5061026660048036038101908080359060200190929190505050610736565b6040518080602001828103825283818151815260200191508051906020019080838360005b838110156102a657808201518184015260208101905061028b565b50505050905090810190601f1680156102d35780820380516001836020036101000a031916815260200191505b509250505060405180910390f35b3480156102ed57600080fd5b50610322600480360381019080803573ffffffffffffffffffffffffffffffffffffffff1690602001909291905050506108bd565b6040518082815260200191505060405180910390f35b34801561034457600080fd5b5061036360048036038101908080359060200190929190505050610b8b565b60405180806020018373ffffffffffffffffffffffffffffffffffffffff1673ffffffffffffffffffffffffffffffffffffffff168152602001828103825284818151815260200191508051906020019080838360005b838110156103d55780820151818401526020810190506103ba565b50505050905090810190601f1680156104025780820380516001836020036101000a031916815260200191505b50935050505060405180910390f35b34801561041d57600080fd5b50610452600480360381019080803573ffffffffffffffffffffffffffffffffffffffff169060200190929190505050610baa565b6040518083600019166000191681526020018281526020019250505060405180910390f35b34801561048357600080fd5b506104a260048036038101908080359060200190929190505050610bce565b604051808273ffffffffffffffffffffffffffffffffffffffff1673ffffffffffffffffffffffffffffffffffffffff16815260200191505060405180910390f35b3480156104f057600080fd5b50610533600480360381019080803573ffffffffffffffffffffffffffffffffffffffff1690602001909291908035600019169060200190929190505050610c11565b6040518082815260200191505060405180910390f35b34801561055557600080fd5b50610598600480360381019080803573ffffffffffffffffffffffffffffffffffffffff1690602001909291908035600019169060200190929190505050610df1565b604051808215151515815260200191505060405180910390f35b3480156105be57600080fd5b506105f3600480360381019080803573ffffffffffffffffffffffffffffffffffffffff169060200190929190505050610f88565b604051808215151515815260200191505060405180910390f35b6000600180549050905090565b60008060008373ffffffffffffffffffffffffffffffffffffffff1673ffffffffffffffffffffffffffffffffffffffff168152602001908152602001600020600101549050919050565b60018181548110151561067457fe5b906000526020600020016000915054906101000a900473ffffffffffffffffffffffffffffffffffffffff1681565b600260009054906101000a900473ffffffffffffffffffffffffffffffffffffffff1673ffffffffffffffffffffffffffffffffffffffff163373ffffffffffffffffffffffffffffffffffffffff16141561073457600260009054906101000a900473ffffffffffffffffffffffffffffffffffffffff1673ffffffffffffffffffffffffffffffffffffffff16ff5b565b606073__MaintLibrary__________________________63ef0b236860008060018681548110151561076457fe5b9060005260206000200160009054906101000a900473ffffffffffffffffffffffffffffffffffffffff1673ffffffffffffffffffffffffffffffffffffffff1673ffffffffffffffffffffffffffffffffffffffff168152602001908152602001600020600001546040518263ffffffff167c010000000000000000000000000000000000000000000000000000000002815260040180826000191660001916815260200191505060006040518083038186803b15801561082557600080fd5b505af4158015610839573d6000803e3d6000fd5b505050506040513d6000823e3d601f19601f82011682018060405250602081101561086357600080fd5b81019080805164010000000081111561087b57600080fd5b8281019050602081018481111561089157600080fd5b81518560018202830111640100000000821117156108ae57600080fd5b50509291905050509050919050565b60008060006108cb84610f88565b1515610965576040517f08c379a00000000000000000000000000000000000000000000000000000000081526004018080602001828103825260268152602001807f53686f706b65657020746f2062652064656c6574656420646f6573206e6f742081526020017f65786973742e000000000000000000000000000000000000000000000000000081525060400191505060405180910390fd5b6000808573ffffffffffffffffffffffffffffffffffffffff1673ffffffffffffffffffffffffffffffffffffffff1681526020019081526020016000206001015491506001808080549050038154811015156109be57fe5b9060005260206000200160009054906101000a900473ffffffffffffffffffffffffffffffffffffffff169050806001838154811015156109fb57fe5b9060005260206000200160006101000a81548173ffffffffffffffffffffffffffffffffffffffff021916908373ffffffffffffffffffffffffffffffffffffffff160217905550816000808373ffffffffffffffffffffffffffffffffffffffff1673ffffffffffffffffffffffffffffffffffffffff168152602001908152602001600020600101819055506001805480919060019003610a9e9190611051565b508373ffffffffffffffffffffffffffffffffffffffff167f8a7078deb23f9f9ac10e6b51506eb0dc30f9fefc32736549cc562488ad83b96a60405160405180910390a28073ffffffffffffffffffffffffffffffffffffffff167f8e25b5e7734777f2a7547e45c0c7ed4a498ef624db0addc493dec5b41af06447836000808573ffffffffffffffffffffffffffffffffffffffff1673ffffffffffffffffffffffffffffffffffffffff168152602001908152602001600020600001546040518083815260200182600019166000191681526020019250505060405180910390a28192505050919050565b60606000610b9883610736565b610ba184610bce565b91509150915091565b60006020528060005260406000206000915090508060000154908060010154905082565b6000600182815481101515610bdf57fe5b9060005260206000200160009054906101000a900473ffffffffffffffffffffffffffffffffffffffff169050919050565b6000610c1c83610f88565b151515610c91576040517f08c379a00000000000000000000000000000000000000000000000000000000081526004018080602001828103825260188152602001807f53686f706b65657020616c7265616479206578697374732e000000000000000081525060200191505060405180910390fd5b816000808573ffffffffffffffffffffffffffffffffffffffff1673ffffffffffffffffffffffffffffffffffffffff16815260200190815260200160002060000181600019169055506001808490806001815401808255809150509060018203906000526020600020016000909192909190916101000a81548173ffffffffffffffffffffffffffffffffffffffff021916908373ffffffffffffffffffffffffffffffffffffffff160217905550039050806000808573ffffffffffffffffffffffffffffffffffffffff1673ffffffffffffffffffffffffffffffffffffffff168152602001908152602001600020600101819055508273ffffffffffffffffffffffffffffffffffffffff167f9457cfaaf076b33a18bc5b3cf0d47bb8c4e51603a49ea0813880194ad6bbd9b782846040518083815260200182600019166000191681526020019250505060405180910390a280905092915050565b6000610dfc83610f88565b1515610e96576040517f08c379a00000000000000000000000000000000000000000000000000000000081526004018080602001828103825260268152602001807f53686f706b65657020746f206265207570646174656420646f6573206e6f742081526020017f65786973742e000000000000000000000000000000000000000000000000000081525060400191505060405180910390fd5b816000808573ffffffffffffffffffffffffffffffffffffffff1673ffffffffffffffffffffffffffffffffffffffff16815260200190815260200160002060000181600019169055508273ffffffffffffffffffffffffffffffffffffffff167f8e25b5e7734777f2a7547e45c0c7ed4a498ef624db0addc493dec5b41af064476000808673ffffffffffffffffffffffffffffffffffffffff1673ffffffffffffffffffffffffffffffffffffffff16815260200190815260200160002060010154846040518083815260200182600019166000191681526020019250505060405180910390a280905092915050565b6000806001805490501415610fa0576000905061104c565b8173ffffffffffffffffffffffffffffffffffffffff1660016000808573ffffffffffffffffffffffffffffffffffffffff1673ffffffffffffffffffffffffffffffffffffffff1681526020019081526020016000206001015481548110151561100757fe5b9060005260206000200160009054906101000a900473ffffffffffffffffffffffffffffffffffffffff1673ffffffffffffffffffffffffffffffffffffffff161490505b919050565b81548183558181111561107857818360005260206000209182019101611077919061107d565b5b505050565b61109f91905b8082111561109b576000816000905550600101611083565b5090565b905600a165627a7a7230582048752c7405121a1e8108fb29ac3173d70d2fe8d3885d305beedd711d337346e30029",
  "source": "pragma solidity ^0.4.17;\r\n\r\nimport { MaintLibrary } from \"./MaintLibrary.sol\";\r\n/* @title Shopkeep*/\r\ncontract Shopkeep {\r\n\r\n    struct TableStruct1 {\r\n        bytes32 Name;\r\n        uint index;\r\n    }\r\n\r\n    mapping(address => TableStruct1) public shopkeepStructs;\r\n    address[] public shopkeepIndex;\r\n    address owner = msg.sender; \r\n\r\n\r\n    event LogNewShopkeep (address indexed shopkeepAddress, uint index, bytes32 Name );\r\n    event LogUpdateShopkeep (address indexed shopkeepAddress, uint index, bytes32 Name );\r\n    event LogDeleteShopkeep (address indexed shopkeepAddress);\r\n \r\n    //Constructor\r\n    constructor() public {  \r\n        insertShopkeep(msg.sender,\"ShopKeep 0\"); // Nonsensical entry to test values against.\r\n        insertShopkeep(0xEAf418b2f021C73F77b7506639220a46F65bd7F0,\"Shopkeep 1\");\r\n\r\n    }\r\n\r\n    // Kill contract function\r\n    /* @title kill*/\r\n    /* @dev kills contract      \r\n    */  \r\n    function kill() public { \r\n        if(msg.sender == owner) {\r\n            selfdestruct(owner); \r\n        }\r\n    }\r\n\r\n    // Shopkeep functions  \r\n    /* @title    getShopkeepIndexLength      */\r\n    function getShopkeepIndexLength() public view returns (uint) {\r\n        return  shopkeepIndex.length;\r\n    }\r\n\r\n    /* @title   getShopKeepNameAddr       */\r\n    function getShopKeepNameAddr(uint _id) public view returns (string _thisname, address _thisaddress) {\r\n        return (getShopkeepNameAtIndex(_id),getShopkeepAtIndex(_id));       \r\n    }\r\n\r\n    /* @title   isShopKeep       */\r\n    function isShopKeep(address _shopkeepAddress) public view returns (bool isIndeed)\r\n    {\r\n        if(shopkeepIndex.length == 0) return false;\r\n        return (shopkeepIndex[shopkeepStructs[_shopkeepAddress].index] == _shopkeepAddress);\r\n    }   \r\n\r\n    /* @title   insertShopkeep       */\r\n    function insertShopkeep(address _shopkeepAddress, bytes32 _name) public returns(uint newindex)  {       \r\n        require(!isShopKeep(_shopkeepAddress),\"Shopkeep already exists.\");\r\n        shopkeepStructs[_shopkeepAddress].Name = _name;\r\n        newindex = shopkeepIndex.push(_shopkeepAddress)-1;\r\n        shopkeepStructs[_shopkeepAddress].index = newindex;\r\n        emit LogNewShopkeep(_shopkeepAddress,newindex,_name);         \r\n        return newindex; \r\n    }\r\n\r\n    /* @title    deleteShopkeep      */\r\n    function deleteShopkeep(address _shopkeepAddress) public returns(uint _index) {\r\n        require(isShopKeep(_shopkeepAddress),\"Shopkeep to be deleted does not exist.\");  \r\n        uint rowToDelete = shopkeepStructs[_shopkeepAddress].index;\r\n        address keyToMove = shopkeepIndex[shopkeepIndex.length-1];\r\n        shopkeepIndex[rowToDelete] = keyToMove;\r\n        shopkeepStructs[keyToMove].index = rowToDelete;\r\n        shopkeepIndex.length--;      \r\n        emit LogDeleteShopkeep(_shopkeepAddress);      \r\n        emit LogUpdateShopkeep(keyToMove,rowToDelete,shopkeepStructs[keyToMove].Name);\r\n        return rowToDelete;\r\n    }\r\n\r\n    /* @title  updateShopkeepName        */\r\n    function updateShopkeepName(address _shopkeepAddress, bytes32 _name) public returns(bool success) {\r\n        require(isShopKeep(_shopkeepAddress),\"Shopkeep to be updated does not exist.\");      \r\n        shopkeepStructs[_shopkeepAddress].Name = _name;\r\n        emit LogUpdateShopkeep(_shopkeepAddress,shopkeepStructs[_shopkeepAddress].index,_name);\r\n        return success;\r\n    } \r\n\r\n    /* @title   getShopkeepNameAtIndex       */\r\n    function getShopkeepNameAtIndex(uint _index) public view returns (string) {\r\n        return  MaintLibrary.bytes32ToStr(shopkeepStructs[shopkeepIndex[_index]].Name);\r\n    }\r\n\r\n    /* @title  getShopkeepAtIndex        */\r\n    function getShopkeepAtIndex(uint _index) public view returns (address) {\r\n        return  shopkeepIndex[_index];        \r\n    }\r\n\r\n    /* @title   getShopkeepIdatAddr       */\r\n    function getShopkeepIdatAddr(address _shopkeepaddr) public view returns (uint) {      \r\n        return  shopkeepStructs[_shopkeepaddr].index;       \r\n    }\r\n\r\n    // Fallback function - Called if other functions don't match call or\r\n    // sent ether without data\r\n    // Typically, called when invalid data is sent\r\n    // Added so ether sent to this contract is reverted if the contract fails\r\n    // otherwise, the sender's money is transferred to contract\r\n\r\n    /* @title Fallback*/    \r\n    /* @dev fallback function if contract called with no function to force it to revert.\r\n        @return revert\r\n    */     \r\n    function () public {\r\n        revert(\"Contract failure\");\r\n    }\r\n}\r\n",
  "sourcePath": "C:\\Active\\BitBucket_Repositories\\Consensys_project\\AncientCoinShop\\contracts\\Shopkeep.sol",
  "compiler": {
    "name": "solc",
    "version": "0.4.24+commit.e67f0147.Emscripten.clang"
  },
  "schemaVersion": "2.0.1",
  "updatedAt": "2018-08-28T09:22:47.271Z"
}