{
  "contractName": "Shop",
  "abi": [
    {
      "constant": true,
      "inputs": [
        {
          "name": "",
          "type": "address"
        }
      ],
      "name": "shopExists",
      "outputs": [
        {
          "name": "",
          "type": "bool"
        }
      ],
      "payable": false,
      "stateMutability": "view",
      "type": "function"
    },
    {
      "constant": true,
      "inputs": [
        {
          "name": "",
          "type": "address"
        }
      ],
      "name": "shopStructs",
      "outputs": [
        {
          "name": "Name",
          "type": "string"
        },
        {
          "name": "index",
          "type": "uint256"
        },
        {
          "name": "Shopownerid",
          "type": "uint256"
        },
        {
          "name": "ActiveStatus",
          "type": "bool"
        }
      ],
      "payable": false,
      "stateMutability": "view",
      "type": "function"
    },
    {
      "constant": true,
      "inputs": [
        {
          "name": "",
          "type": "uint256"
        }
      ],
      "name": "shopIndex",
      "outputs": [
        {
          "name": "",
          "type": "address"
        }
      ],
      "payable": false,
      "stateMutability": "view",
      "type": "function"
    },
    {
      "constant": true,
      "inputs": [],
      "name": "ActiveShopCount",
      "outputs": [
        {
          "name": "",
          "type": "uint256"
        }
      ],
      "payable": false,
      "stateMutability": "view",
      "type": "function"
    },
    {
      "constant": true,
      "inputs": [
        {
          "name": "",
          "type": "address"
        }
      ],
      "name": "activeProductCount",
      "outputs": [
        {
          "name": "",
          "type": "uint256"
        }
      ],
      "payable": false,
      "stateMutability": "view",
      "type": "function"
    },
    {
      "inputs": [],
      "payable": false,
      "stateMutability": "nonpayable",
      "type": "constructor"
    },
    {
      "payable": false,
      "stateMutability": "nonpayable",
      "type": "fallback"
    },
    {
      "anonymous": false,
      "inputs": [
        {
          "indexed": true,
          "name": "shopAddress",
          "type": "address"
        },
        {
          "indexed": false,
          "name": "index",
          "type": "uint256"
        },
        {
          "indexed": false,
          "name": "Name",
          "type": "string"
        },
        {
          "indexed": false,
          "name": "Shopownerid",
          "type": "uint256"
        },
        {
          "indexed": false,
          "name": "ActiveStatus",
          "type": "bool"
        }
      ],
      "name": "LogNewShop",
      "type": "event"
    },
    {
      "anonymous": false,
      "inputs": [
        {
          "indexed": true,
          "name": "shopAddress",
          "type": "address"
        },
        {
          "indexed": false,
          "name": "index",
          "type": "uint256"
        },
        {
          "indexed": false,
          "name": "Name",
          "type": "string"
        },
        {
          "indexed": false,
          "name": "Shopownerid",
          "type": "uint256"
        },
        {
          "indexed": false,
          "name": "ActiveStatus",
          "type": "bool"
        }
      ],
      "name": "LogUpdateShop",
      "type": "event"
    },
    {
      "anonymous": false,
      "inputs": [
        {
          "indexed": true,
          "name": "shop",
          "type": "address"
        },
        {
          "indexed": false,
          "name": "shopkeep",
          "type": "address"
        },
        {
          "indexed": false,
          "name": "productid",
          "type": "uint256"
        },
        {
          "indexed": false,
          "name": "quant",
          "type": "uint256"
        },
        {
          "indexed": false,
          "name": "value",
          "type": "uint256"
        }
      ],
      "name": "LogFundTransfer",
      "type": "event"
    },
    {
      "anonymous": false,
      "inputs": [
        {
          "indexed": true,
          "name": "shop",
          "type": "address"
        }
      ],
      "name": "LogDeleteShop",
      "type": "event"
    },
    {
      "constant": false,
      "inputs": [],
      "name": "kill",
      "outputs": [],
      "payable": false,
      "stateMutability": "nonpayable",
      "type": "function"
    },
    {
      "constant": true,
      "inputs": [],
      "name": "getShopIndexLength",
      "outputs": [
        {
          "name": "",
          "type": "uint256"
        }
      ],
      "payable": false,
      "stateMutability": "view",
      "type": "function"
    },
    {
      "constant": true,
      "inputs": [
        {
          "name": "_shopaddress",
          "type": "address"
        }
      ],
      "name": "getShopownerid",
      "outputs": [
        {
          "name": "",
          "type": "uint256"
        }
      ],
      "payable": false,
      "stateMutability": "view",
      "type": "function"
    },
    {
      "constant": false,
      "inputs": [
        {
          "name": "_shopaddress",
          "type": "address"
        },
        {
          "name": "_additionalvalue",
          "type": "uint256"
        },
        {
          "name": "_shouldincrement",
          "type": "bool"
        }
      ],
      "name": "updateShopActiveProductCount",
      "outputs": [],
      "payable": false,
      "stateMutability": "nonpayable",
      "type": "function"
    },
    {
      "constant": true,
      "inputs": [
        {
          "name": "_shopindex",
          "type": "uint256"
        }
      ],
      "name": "getShopActiveProductCount",
      "outputs": [
        {
          "name": "",
          "type": "uint256"
        }
      ],
      "payable": false,
      "stateMutability": "view",
      "type": "function"
    },
    {
      "constant": true,
      "inputs": [
        {
          "name": "_shopAddress",
          "type": "address"
        }
      ],
      "name": "isShop",
      "outputs": [
        {
          "name": "isIndeed",
          "type": "bool"
        }
      ],
      "payable": false,
      "stateMutability": "view",
      "type": "function"
    },
    {
      "constant": false,
      "inputs": [
        {
          "name": "_shopAddress",
          "type": "address"
        },
        {
          "name": "_name",
          "type": "string"
        },
        {
          "name": "_shopkeepid",
          "type": "uint256"
        },
        {
          "name": "_activestatus",
          "type": "bool"
        }
      ],
      "name": "insertShop",
      "outputs": [
        {
          "name": "index",
          "type": "uint256"
        }
      ],
      "payable": false,
      "stateMutability": "nonpayable",
      "type": "function"
    },
    {
      "constant": true,
      "inputs": [
        {
          "name": "_shopAddress",
          "type": "address"
        }
      ],
      "name": "getShopIndex",
      "outputs": [
        {
          "name": "index",
          "type": "uint256"
        }
      ],
      "payable": false,
      "stateMutability": "view",
      "type": "function"
    },
    {
      "constant": false,
      "inputs": [
        {
          "name": "_shopAddress",
          "type": "address"
        },
        {
          "name": "_name",
          "type": "string"
        },
        {
          "name": "_shopkeepid",
          "type": "uint256"
        },
        {
          "name": "_activestatus",
          "type": "bool"
        }
      ],
      "name": "updateShop",
      "outputs": [
        {
          "name": "success",
          "type": "bool"
        }
      ],
      "payable": false,
      "stateMutability": "nonpayable",
      "type": "function"
    },
    {
      "constant": false,
      "inputs": [
        {
          "name": "_shopAddress",
          "type": "address"
        }
      ],
      "name": "deleteShop",
      "outputs": [
        {
          "name": "",
          "type": "uint256"
        }
      ],
      "payable": false,
      "stateMutability": "nonpayable",
      "type": "function"
    },
    {
      "constant": true,
      "inputs": [
        {
          "name": "_shopaddress",
          "type": "address"
        }
      ],
      "name": "getShopName",
      "outputs": [
        {
          "name": "",
          "type": "string"
        }
      ],
      "payable": false,
      "stateMutability": "view",
      "type": "function"
    },
    {
      "constant": true,
      "inputs": [],
      "name": "getActiveShopCount",
      "outputs": [
        {
          "name": "count",
          "type": "uint256"
        }
      ],
      "payable": false,
      "stateMutability": "view",
      "type": "function"
    },
    {
      "constant": true,
      "inputs": [
        {
          "name": "_index",
          "type": "uint256"
        }
      ],
      "name": "getShopNameAtIndex",
      "outputs": [
        {
          "name": "shopName",
          "type": "string"
        }
      ],
      "payable": false,
      "stateMutability": "view",
      "type": "function"
    },
    {
      "constant": true,
      "inputs": [
        {
          "name": "_index",
          "type": "uint256"
        }
      ],
      "name": "getShopAtIndex",
      "outputs": [
        {
          "name": "shopAddress",
          "type": "address"
        }
      ],
      "payable": false,
      "stateMutability": "view",
      "type": "function"
    },
    {
      "constant": true,
      "inputs": [
        {
          "name": "_shopAddress",
          "type": "address"
        }
      ],
      "name": "getShop",
      "outputs": [
        {
          "name": "shopName",
          "type": "string"
        },
        {
          "name": "index",
          "type": "uint256"
        },
        {
          "name": "shopkeepid",
          "type": "uint256"
        },
        {
          "name": "activestatus",
          "type": "bool"
        }
      ],
      "payable": false,
      "stateMutability": "view",
      "type": "function"
    },
    {
      "constant": false,
      "inputs": [
        {
          "name": "_toshopkeep",
          "type": "address"
        },
        {
          "name": "_productid",
          "type": "uint256"
        },
        {
          "name": "_quant",
          "type": "uint256"
        }
      ],
      "name": "Transfer",
      "outputs": [
        {
          "name": "",
          "type": "bool"
        }
      ],
      "payable": true,
      "stateMutability": "payable",
      "type": "function"
    }
  ],
  "bytecode": "0x608060405233600360006101000a81548173ffffffffffffffffffffffffffffffffffffffff021916908373ffffffffffffffffffffffffffffffffffffffff1602179055503480156200005257600080fd5b506000620000a9336040805190810160405280600681526020017f53686f702030000000000000000000000000000000000000000000000000000081525060006001620000e9640100000000026401000000009004565b9050620000e2620000c982620004f6640100000000026401000000009004565b600560016200053a640100000000026401000000009004565b50620007ba565b60006200010585620006b5640100000000026401000000009004565b1515156200017b576040517f08c379a00000000000000000000000000000000000000000000000000000000081526004018080602001828103825260148152602001807f53686f7020616c7265616479206578697374732e00000000000000000000000081525060200191505060405180910390fd5b836000808773ffffffffffffffffffffffffffffffffffffffff1673ffffffffffffffffffffffffffffffffffffffff1681526020019081526020016000206000019080519060200190620001d29291906200070b565b506001808690806001815401808255809150509060018203906000526020600020016000909192909190916101000a81548173ffffffffffffffffffffffffffffffffffffffff021916908373ffffffffffffffffffffffffffffffffffffffff160217905550036000808773ffffffffffffffffffffffffffffffffffffffff1673ffffffffffffffffffffffffffffffffffffffff16815260200190815260200160002060010181905550826000808773ffffffffffffffffffffffffffffffffffffffff1673ffffffffffffffffffffffffffffffffffffffff16815260200190815260200160002060020181905550816000808773ffffffffffffffffffffffffffffffffffffffff1673ffffffffffffffffffffffffffffffffffffffff16815260200190815260200160002060030160006101000a81548160ff0219169083151502179055506001600260008773ffffffffffffffffffffffffffffffffffffffff1673ffffffffffffffffffffffffffffffffffffffff16815260200190815260200160002060006101000a81548160ff02191690831515021790555060011515821515141562000397576005600081548092919060010191905055505b8473ffffffffffffffffffffffffffffffffffffffff167f31d8d8bc671cb0b2a16a5d818605f3cdcee2edd7bb521f75878983a08293ebbf6000808873ffffffffffffffffffffffffffffffffffffffff1673ffffffffffffffffffffffffffffffffffffffff16815260200190815260200160002060010154868686604051808581526020018060200184815260200183151515158152602001828103825285818151815260200191508051906020019080838360005b838110156200046c5780820151818401526020810190506200044f565b50505050905090810190601f1680156200049a5780820380516001836020036101000a031916815260200191505b509550505050505060405180910390a26000808673ffffffffffffffffffffffffffffffffffffffff1673ffffffffffffffffffffffffffffffffffffffff168152602001908152602001600020600101549050949350505050565b60006001828154811015156200050857fe5b9060005260206000200160009054906101000a900473ffffffffffffffffffffffffffffffffffffffff169050919050565b60006200055684620006b5640100000000026401000000009004565b1515620005cb576040517f08c379a00000000000000000000000000000000000000000000000000000000081526004018080602001828103825260148152602001807f53686f7020646f6573206e6f742065786973742e00000000000000000000000081525060200191505060405180910390fd5b600460008573ffffffffffffffffffffffffffffffffffffffff1673ffffffffffffffffffffffffffffffffffffffff168152602001908152602001600020549050600115158215151415156200066857828103600460008673ffffffffffffffffffffffffffffffffffffffff1673ffffffffffffffffffffffffffffffffffffffff16815260200190815260200160002081905550620006af565b828101600460008673ffffffffffffffffffffffffffffffffffffffff1673ffffffffffffffffffffffffffffffffffffffff168152602001908152602001600020819055505b50505050565b6000600260008373ffffffffffffffffffffffffffffffffffffffff1673ffffffffffffffffffffffffffffffffffffffff16815260200190815260200160002060009054906101000a900460ff169050919050565b828054600181600116156101000203166002900490600052602060002090601f016020900481019282601f106200074e57805160ff19168380011785556200077f565b828001600101855582156200077f579182015b828111156200077e57825182559160200191906001019062000761565b5b5090506200078e919062000792565b5090565b620007b791905b80821115620007b357600081600090555060010162000799565b5090565b90565b6120ba80620007ca6000396000f30060806040526004361061011d576000357c0100000000000000000000000000000000000000000000000000000000900463ffffffff1680630e479dc714610198578063118664981461026d5780631d0e8a4d146102c8578063232d2f271461032357806330055a44146103f857806341c0e1b5146104235780634b7362e11461043a5780634fa6187114610465578063653284e7146104d257806365422c27146105295780637fa9aafe146105cf57806381fa830114610631578063878127c8146106885780639b3eb394146106f5578063a4de5d8114610720578063c08e538814610779578063c9d553c9146107d0578063cd74af4f14610811578063d0d0f10d146108c8578063e7bfea5014610984578063f926f380146109db575b34801561012957600080fd5b506040517f08c379a00000000000000000000000000000000000000000000000000000000081526004018080602001828103825260108152602001807f436f6e7472616374206661696c7572650000000000000000000000000000000081525060200191505060405180910390fd5b3480156101a457600080fd5b506101d9600480360381019080803573ffffffffffffffffffffffffffffffffffffffff169060200190929190505050610a8e565b604051808060200185815260200184815260200183151515158152602001828103825286818151815260200191508051906020019080838360005b8381101561022f578082015181840152602081019050610214565b50505050905090810190601f16801561025c5780820380516001836020036101000a031916815260200191505b509550505050505060405180910390f35b34801561027957600080fd5b506102ae600480360381019080803573ffffffffffffffffffffffffffffffffffffffff169060200190929190505050610d15565b604051808215151515815260200191505060405180910390f35b3480156102d457600080fd5b50610309600480360381019080803573ffffffffffffffffffffffffffffffffffffffff169060200190929190505050610d35565b604051808215151515815260200191505060405180910390f35b34801561032f57600080fd5b50610364600480360381019080803573ffffffffffffffffffffffffffffffffffffffff169060200190929190505050610d8b565b604051808060200185815260200184815260200183151515158152602001828103825286818151815260200191508051906020019080838360005b838110156103ba57808201518184015260208101905061039f565b50505050905090810190601f1680156103e75780820380516001836020036101000a031916815260200191505b509550505050505060405180910390f35b34801561040457600080fd5b5061040d610e60565b6040518082815260200191505060405180910390f35b34801561042f57600080fd5b50610438610e6a565b005b34801561044657600080fd5b5061044f610efd565b6040518082815260200191505060405180910390f35b34801561047157600080fd5b5061049060048036038101908080359060200190929190505050610f0a565b604051808273ffffffffffffffffffffffffffffffffffffffff1673ffffffffffffffffffffffffffffffffffffffff16815260200191505060405180910390f35b3480156104de57600080fd5b50610513600480360381019080803573ffffffffffffffffffffffffffffffffffffffff169060200190929190505050610f4d565b6040518082815260200191505060405180910390f35b34801561053557600080fd5b5061055460048036038101908080359060200190929190505050610f98565b6040518080602001828103825283818151815260200191508051906020019080838360005b83811015610594578082015181840152602081019050610579565b50505050905090810190601f1680156105c15780820380516001836020036101000a031916815260200191505b509250505060405180910390f35b610617600480360381019080803573ffffffffffffffffffffffffffffffffffffffff1690602001909291908035906020019092919080359060200190929190505050611083565b604051808215151515815260200191505060405180910390f35b34801561063d57600080fd5b50610672600480360381019080803573ffffffffffffffffffffffffffffffffffffffff16906020019092919050505061116e565b6040518082815260200191505060405180910390f35b34801561069457600080fd5b506106b3600480360381019080803590602001909291905050506111b9565b604051808273ffffffffffffffffffffffffffffffffffffffff1673ffffffffffffffffffffffffffffffffffffffff16815260200191505060405180910390f35b34801561070157600080fd5b5061070a6111f7565b6040518082815260200191505060405180910390f35b34801561072c57600080fd5b50610777600480360381019080803573ffffffffffffffffffffffffffffffffffffffff169060200190929190803590602001909291908035151590602001909291905050506111fd565b005b34801561078557600080fd5b506107ba600480360381019080803573ffffffffffffffffffffffffffffffffffffffff169060200190929190505050611364565b6040518082815260200191505060405180910390f35b3480156107dc57600080fd5b506107fb6004803603810190808035906020019092919050505061137c565b6040518082815260200191505060405180910390f35b34801561081d57600080fd5b506108ae600480360381019080803573ffffffffffffffffffffffffffffffffffffffff169060200190929190803590602001908201803590602001908080601f0160208091040260200160405190810160405280939291908181526020018383808284378201915050505050509192919290803590602001909291908035151590602001909291905050506114b4565b604051808215151515815260200191505060405180910390f35b3480156108d457600080fd5b50610909600480360381019080803573ffffffffffffffffffffffffffffffffffffffff1690602001909291905050506118f9565b6040518080602001828103825283818151815260200191508051906020019080838360005b8381101561094957808201518184015260208101905061092e565b50505050905090810190601f1680156109765780820380516001836020036101000a031916815260200191505b509250505060405180910390f35b34801561099057600080fd5b506109c5600480360381019080803573ffffffffffffffffffffffffffffffffffffffff1690602001909291905050506119dc565b6040518082815260200191505060405180910390f35b3480156109e757600080fd5b50610a78600480360381019080803573ffffffffffffffffffffffffffffffffffffffff169060200190929190803590602001908201803590602001908080601f016020809104026020016040519081016040528093929190818152602001838380828437820191505050505050919291929080359060200190929190803515159060200190929190505050611bc8565b6040518082815260200191505060405180910390f35b60606000806000600260008673ffffffffffffffffffffffffffffffffffffffff1673ffffffffffffffffffffffffffffffffffffffff16815260200190815260200160002060009054906101000a900460ff161515610b56576040517f08c379a00000000000000000000000000000000000000000000000000000000081526004018080602001828103825260148152602001807f53686f7020646f6573206e6f742065786973742e00000000000000000000000081525060200191505060405180910390fd5b6000808673ffffffffffffffffffffffffffffffffffffffff1673ffffffffffffffffffffffffffffffffffffffff1681526020019081526020016000206000016000808773ffffffffffffffffffffffffffffffffffffffff1673ffffffffffffffffffffffffffffffffffffffff168152602001908152602001600020600101546000808873ffffffffffffffffffffffffffffffffffffffff1673ffffffffffffffffffffffffffffffffffffffff168152602001908152602001600020600201546000808973ffffffffffffffffffffffffffffffffffffffff1673ffffffffffffffffffffffffffffffffffffffff16815260200190815260200160002060030160009054906101000a900460ff16838054600181600116156101000203166002900480601f016020809104026020016040519081016040528092919081815260200182805460018160011615610100020316600290048015610cff5780601f10610cd457610100808354040283529160200191610cff565b820191906000526020600020905b815481529060010190602001808311610ce257829003601f168201915b5050505050935093509350935093509193509193565b60026020528060005260406000206000915054906101000a900460ff1681565b6000600260008373ffffffffffffffffffffffffffffffffffffffff1673ffffffffffffffffffffffffffffffffffffffff16815260200190815260200160002060009054906101000a900460ff169050919050565b6000602052806000526040600020600091509050806000018054600181600116156101000203166002900480601f016020809104026020016040519081016040528092919081815260200182805460018160011615610100020316600290048015610e375780601f10610e0c57610100808354040283529160200191610e37565b820191906000526020600020905b815481529060010190602001808311610e1a57829003601f168201915b5050505050908060010154908060020154908060030160009054906101000a900460ff16905084565b6000600554905090565b600360009054906101000a900473ffffffffffffffffffffffffffffffffffffffff1673ffffffffffffffffffffffffffffffffffffffff163373ffffffffffffffffffffffffffffffffffffffff161415610efb57600360009054906101000a900473ffffffffffffffffffffffffffffffffffffffff1673ffffffffffffffffffffffffffffffffffffffff16ff5b565b6000600180549050905090565b6000600182815481101515610f1b57fe5b9060005260206000200160009054906101000a900473ffffffffffffffffffffffffffffffffffffffff169050919050565b60008060008373ffffffffffffffffffffffffffffffffffffffff1673ffffffffffffffffffffffffffffffffffffffff168152602001908152602001600020600201549050919050565b6060600080610fa684610f0a565b73ffffffffffffffffffffffffffffffffffffffff1673ffffffffffffffffffffffffffffffffffffffff1681526020019081526020016000206000018054600181600116156101000203166002900480601f0160208091040260200160405190810160405280929190818152602001828054600181600116156101000203166002900480156110775780601f1061104c57610100808354040283529160200191611077565b820191906000526020600020905b81548152906001019060200180831161105a57829003601f168201915b50505050509050919050565b6000803490508473ffffffffffffffffffffffffffffffffffffffff166108fc829081150290604051600060405180830381858888f193505050501580156110cf573d6000803e3d6000fd5b503373ffffffffffffffffffffffffffffffffffffffff167fce9aac56c78a2a20315e3e718fe1409777cbfe2605633fe921bfdc9cd881b71b86868685604051808573ffffffffffffffffffffffffffffffffffffffff1673ffffffffffffffffffffffffffffffffffffffff16815260200184815260200183815260200182815260200194505050505060405180910390a260019150509392505050565b60008060008373ffffffffffffffffffffffffffffffffffffffff1673ffffffffffffffffffffffffffffffffffffffff168152602001908152602001600020600101549050919050565b6001818154811015156111c857fe5b906000526020600020016000915054906101000a900473ffffffffffffffffffffffffffffffffffffffff1681565b60055481565b600061120884610d35565b151561127c576040517f08c379a00000000000000000000000000000000000000000000000000000000081526004018080602001828103825260148152602001807f53686f7020646f6573206e6f742065786973742e00000000000000000000000081525060200191505060405180910390fd5b600460008573ffffffffffffffffffffffffffffffffffffffff1673ffffffffffffffffffffffffffffffffffffffff1681526020019081526020016000205490506001151582151514151561131757828103600460008673ffffffffffffffffffffffffffffffffffffffff1673ffffffffffffffffffffffffffffffffffffffff1681526020019081526020016000208190555061135e565b828101600460008673ffffffffffffffffffffffffffffffffffffffff1673ffffffffffffffffffffffffffffffffffffffff168152602001908152602001600020819055505b50505050565b60046020528060005260406000206000915090505481565b60006113c060018381548110151561139057fe5b9060005260206000200160009054906101000a900473ffffffffffffffffffffffffffffffffffffffff16610d35565b1515611434576040517f08c379a00000000000000000000000000000000000000000000000000000000081526004018080602001828103825260148152602001807f53686f7020646f6573206e6f742065786973742e00000000000000000000000081525060200191505060405180910390fd5b6004600060018481548110151561144757fe5b9060005260206000200160009054906101000a900473ffffffffffffffffffffffffffffffffffffffff1673ffffffffffffffffffffffffffffffffffffffff1673ffffffffffffffffffffffffffffffffffffffff168152602001908152602001600020549050919050565b6000600260008673ffffffffffffffffffffffffffffffffffffffff1673ffffffffffffffffffffffffffffffffffffffff16815260200190815260200160002060009054906101000a900460ff16151561159d576040517f08c379a00000000000000000000000000000000000000000000000000000000081526004018080602001828103825260228152602001807f53686f7020746f206265207570646174656420646f6573206e6f74206578697381526020017f742e00000000000000000000000000000000000000000000000000000000000081525060400191505060405180910390fd5b836000808773ffffffffffffffffffffffffffffffffffffffff1673ffffffffffffffffffffffffffffffffffffffff16815260200190815260200160002060000190805190602001906115f2929190611fbd565b506115fc8561116e565b6000808773ffffffffffffffffffffffffffffffffffffffff1673ffffffffffffffffffffffffffffffffffffffff16815260200190815260200160002060010181905550826000808773ffffffffffffffffffffffffffffffffffffffff1673ffffffffffffffffffffffffffffffffffffffff16815260200190815260200160002060020181905550600115156000808773ffffffffffffffffffffffffffffffffffffffff1673ffffffffffffffffffffffffffffffffffffffff16815260200190815260200160002060030160009054906101000a900460ff1615151480156116ed575060001515821515145b1561170657600560008154809291906001900391905055505b600015156000808773ffffffffffffffffffffffffffffffffffffffff1673ffffffffffffffffffffffffffffffffffffffff16815260200190815260200160002060030160009054906101000a900460ff16151514801561176c575060011515821515145b15611784576005600081548092919060010191905055505b816000808773ffffffffffffffffffffffffffffffffffffffff1673ffffffffffffffffffffffffffffffffffffffff16815260200190815260200160002060030160006101000a81548160ff0219169083151502179055508473ffffffffffffffffffffffffffffffffffffffff167feaf1de7cae4145df195c5e6735eef71b1f37a46c65c1c6a2fc0bc595d59884cc6000808873ffffffffffffffffffffffffffffffffffffffff1673ffffffffffffffffffffffffffffffffffffffff16815260200190815260200160002060010154868686604051808581526020018060200184815260200183151515158152602001828103825285818151815260200191508051906020019080838360005b838110156118b0578082015181840152602081019050611895565b50505050905090810190601f1680156118dd5780820380516001836020036101000a031916815260200191505b509550505050505060405180910390a260019050949350505050565b60606000808373ffffffffffffffffffffffffffffffffffffffff1673ffffffffffffffffffffffffffffffffffffffff1681526020019081526020016000206000018054600181600116156101000203166002900480601f0160208091040260200160405190810160405280929190818152602001828054600181600116156101000203166002900480156119d05780601f106119a5576101008083540402835291602001916119d0565b820191906000526020600020905b8154815290600101906020018083116119b357829003601f168201915b50505050509050919050565b60008060006119ea84610d35565b1515611a84576040517f08c379a00000000000000000000000000000000000000000000000000000000081526004018080602001828103825260228152602001807f53686f7020746f2062652064656c6574656420646f6573206e6f74206578697381526020017f742e00000000000000000000000000000000000000000000000000000000000081525060400191505060405180910390fd5b6000808573ffffffffffffffffffffffffffffffffffffffff1673ffffffffffffffffffffffffffffffffffffffff168152602001908152602001600020600101549150600180808054905003815481101515611add57fe5b9060005260206000200160009054906101000a900473ffffffffffffffffffffffffffffffffffffffff16905080600183815481101515611b1a57fe5b9060005260206000200160006101000a81548173ffffffffffffffffffffffffffffffffffffffff021916908373ffffffffffffffffffffffffffffffffffffffff160217905550816000808373ffffffffffffffffffffffffffffffffffffffff1673ffffffffffffffffffffffffffffffffffffffff168152602001908152602001600020600101819055506001805480919060019003611bbd919061203d565b508192505050919050565b6000611bd385610d35565b151515611c48576040517f08c379a00000000000000000000000000000000000000000000000000000000081526004018080602001828103825260148152602001807f53686f7020616c7265616479206578697374732e00000000000000000000000081525060200191505060405180910390fd5b836000808773ffffffffffffffffffffffffffffffffffffffff1673ffffffffffffffffffffffffffffffffffffffff1681526020019081526020016000206000019080519060200190611c9d929190611fbd565b506001808690806001815401808255809150509060018203906000526020600020016000909192909190916101000a81548173ffffffffffffffffffffffffffffffffffffffff021916908373ffffffffffffffffffffffffffffffffffffffff160217905550036000808773ffffffffffffffffffffffffffffffffffffffff1673ffffffffffffffffffffffffffffffffffffffff16815260200190815260200160002060010181905550826000808773ffffffffffffffffffffffffffffffffffffffff1673ffffffffffffffffffffffffffffffffffffffff16815260200190815260200160002060020181905550816000808773ffffffffffffffffffffffffffffffffffffffff1673ffffffffffffffffffffffffffffffffffffffff16815260200190815260200160002060030160006101000a81548160ff0219169083151502179055506001600260008773ffffffffffffffffffffffffffffffffffffffff1673ffffffffffffffffffffffffffffffffffffffff16815260200190815260200160002060006101000a81548160ff021916908315150217905550600115158215151415611e61576005600081548092919060010191905055505b8473ffffffffffffffffffffffffffffffffffffffff167f31d8d8bc671cb0b2a16a5d818605f3cdcee2edd7bb521f75878983a08293ebbf6000808873ffffffffffffffffffffffffffffffffffffffff1673ffffffffffffffffffffffffffffffffffffffff16815260200190815260200160002060010154868686604051808581526020018060200184815260200183151515158152602001828103825285818151815260200191508051906020019080838360005b83811015611f34578082015181840152602081019050611f19565b50505050905090810190601f168015611f615780820380516001836020036101000a031916815260200191505b509550505050505060405180910390a26000808673ffffffffffffffffffffffffffffffffffffffff1673ffffffffffffffffffffffffffffffffffffffff168152602001908152602001600020600101549050949350505050565b828054600181600116156101000203166002900490600052602060002090601f016020900481019282601f10611ffe57805160ff191683800117855561202c565b8280016001018555821561202c579182015b8281111561202b578251825591602001919060010190612010565b5b5090506120399190612069565b5090565b815481835581811115612064578183600052602060002091820191016120639190612069565b5b505050565b61208b91905b8082111561208757600081600090555060010161206f565b5090565b905600a165627a7a72305820d793d8884c2ada0390fcf3606404a639929ee02b92a36130213c36a4b57443010029",
  "source": "pragma solidity ^0.4.17;\r\n/* @title Shop*/\r\ncontract Shop  {\r\n\r\n    struct ShopStruct {\r\n        string Name;\r\n        uint index;\r\n        uint Shopownerid; \r\n        bool ActiveStatus;       \r\n    } \r\n\r\n    mapping(address => ShopStruct) public  shopStructs;\r\n\r\n    address[]  public shopIndex;\r\n\r\n    mapping(address => bool)  public shopExists;\r\n\r\n    address owner = msg.sender; \r\n\r\n    mapping(address => uint) public activeProductCount;\r\n\r\n    uint public ActiveShopCount;\r\n\r\n    event LogNewShop (address indexed shopAddress, uint index, string Name, uint Shopownerid , bool ActiveStatus);\r\n    event LogUpdateShop (address indexed shopAddress, uint index, string Name , uint Shopownerid,bool ActiveStatus);\r\n    event LogFundTransfer(address indexed shop,address shopkeep, uint productid, uint quant, uint value);\r\n    event LogDeleteShop(address indexed shop);\r\n\r\n    modifier checkowner() { \r\n        require(msg.sender == owner);\r\n        _;\r\n    }\r\n\r\n    //Constructor\r\n    constructor() public { \r\n        uint retindex = insertShop(msg.sender,\"Shop 0\",0,true); // Nonsensical entry to test values against.\r\n        updateShopActiveProductCount(getShopAtIndex(retindex),5,true);             \r\n    }\r\n    \r\n    // Kill contract function\r\n    /* @title kill*/\r\n    /* @dev kills contract      \r\n    */  \r\n    function kill() public { \r\n        if(msg.sender == owner) {\r\n            selfdestruct(owner); \r\n        }\r\n    }\r\n\r\n    /* @title   getShopIndexLength()       */ \r\n    // Shop functions  \r\n    function getShopIndexLength() public view returns (uint) {\r\n        return shopIndex.length;\r\n    }\r\n\r\n    /* @title   getShopownerid       */  \r\n    function getShopownerid(address _shopaddress) public view returns (uint) {\r\n        return shopStructs[_shopaddress].Shopownerid;\r\n    }\r\n\r\n\r\n    /* @title   updateShopActiveProductCount       */  \r\n    function updateShopActiveProductCount(address _shopaddress, uint _additionalvalue, bool _shouldincrement) public {\r\n        require(isShop(_shopaddress),\"Shop does not exist.\");\r\n        uint curvalue = activeProductCount[_shopaddress];   \r\n        if (_shouldincrement != true) {\r\n            activeProductCount[_shopaddress] = curvalue - _additionalvalue;       \r\n        } else {\r\n            activeProductCount[_shopaddress] = curvalue + _additionalvalue;       \r\n        }      \r\n    }\r\n\r\n    /* @title    getShopActiveProductCount       */  \r\n    function getShopActiveProductCount(uint _shopindex) public view returns (uint ) {\r\n        require(isShop(shopIndex[_shopindex]),\"Shop does not exist.\"); \r\n        return activeProductCount[shopIndex[_shopindex]] ;\r\n    }\r\n\r\n    /* @title    isShop       */\r\n    function isShop(address _shopAddress) public view returns (bool isIndeed)\r\n    {\r\n        return shopExists[_shopAddress];       \r\n    }\r\n\r\n    /* @title     insertShop      */   \r\n    function insertShop(address _shopAddress, string _name, uint _shopkeepid, bool _activestatus ) public returns(uint index)  {       \r\n        require(!isShop(_shopAddress),\"Shop already exists.\"); \r\n        shopStructs[_shopAddress].Name = _name;        \r\n        shopStructs[_shopAddress].index = shopIndex.push(_shopAddress)-1;\r\n        shopStructs[_shopAddress].Shopownerid = _shopkeepid;\r\n        shopStructs[_shopAddress].ActiveStatus = _activestatus;  \r\n        shopExists[_shopAddress] = true; \r\n        if (_activestatus == true) {\r\n            ActiveShopCount++;\r\n        }\r\n        emit LogNewShop(_shopAddress, shopStructs[_shopAddress].index,_name,_shopkeepid,_activestatus);\r\n        return shopStructs[_shopAddress].index;  \r\n    }\r\n\r\n    /* @title   getShopIndex       */\r\n    function getShopIndex(address _shopAddress) public view returns (uint index) {\r\n        return shopStructs[_shopAddress].index ;\r\n    } \r\n\r\n\r\n    /* @title  updateShop        */\r\n    function updateShop(address _shopAddress, string _name, uint _shopkeepid, bool _activestatus) public returns(bool success) {\r\n        require(shopExists[_shopAddress],\"Shop to be updated does not exist.\");      \r\n        shopStructs[_shopAddress].Name = _name;\r\n        shopStructs[_shopAddress].index = getShopIndex(_shopAddress);\r\n        shopStructs[_shopAddress].Shopownerid = _shopkeepid;\r\n        if( shopStructs[_shopAddress].ActiveStatus == true && _activestatus == false) {\r\n            ActiveShopCount--;\r\n        }\r\n        if( shopStructs[_shopAddress].ActiveStatus == false && _activestatus == true) {\r\n            ActiveShopCount++;\r\n        }        \r\n        shopStructs[_shopAddress].ActiveStatus = _activestatus;\r\n        emit LogUpdateShop(_shopAddress,shopStructs[_shopAddress].index,_name,_shopkeepid,_activestatus);\r\n        return true;\r\n    }\r\n\r\n    /* @title   deleteShop       */\r\n    function deleteShop(address _shopAddress) public returns( uint) {\r\n        require(isShop(_shopAddress),\"Shop to be deleted does not exist.\");      \r\n        uint rowToDelete = shopStructs[_shopAddress].index;          \r\n        address keyToMove = shopIndex[shopIndex.length-1];\r\n        shopIndex[rowToDelete] = keyToMove;\r\n        shopStructs[keyToMove].index = rowToDelete;\r\n        shopIndex.length--;      \r\n      //  shopExists[_shopAddress] = false;\r\n     //   activeProductCount[_shopAddress] = 0;\r\n     //   emit LogDeleteShop(_shopAddress);              \r\n        return rowToDelete;\r\n    }\r\n\r\n    /* @title   getShopName       */\r\n    function getShopName(address _shopaddress) public view returns (string) {\r\n        return  shopStructs[_shopaddress].Name;\r\n    } \r\n    \r\n    \r\n    /* @title   getActiveShopCount       */\r\n    function getActiveShopCount() public view returns(uint count) {     \r\n        return  ActiveShopCount;\r\n    }  \r\n\r\n    /* @title   getShopNameAtIndex       */\r\n    function getShopNameAtIndex(uint _index) public view returns (string shopName) {\r\n        return shopStructs[getShopAtIndex(_index)].Name;\r\n    }  \r\n\r\n    /* @title   getShopAtIndex       */ \r\n    function getShopAtIndex(uint _index) public view returns (address shopAddress) {\r\n        return shopIndex[_index];\r\n    }  \r\n\r\n    /* @title  getShop        */ \r\n    function getShop(address _shopAddress) public  view returns (string shopName, uint index, uint shopkeepid, bool activestatus) {\r\n        require(shopExists[_shopAddress],\"Shop does not exist.\");  \r\n        return (shopStructs[_shopAddress].Name,\r\n            shopStructs[_shopAddress].index,\r\n            shopStructs[_shopAddress].Shopownerid,\r\n            shopStructs[_shopAddress].ActiveStatus);\r\n    } \r\n\r\n    // make note in documentation, using 'transfer' method as a security implementation\r\n    /* @title    Transfer       */ \r\n    function Transfer(address _toshopkeep,uint _productid, uint _quant)   public payable  returns (bool) {\r\n        uint amounttotransfer = msg.value;\r\n        _toshopkeep.transfer(amounttotransfer); \r\n        //  event\r\n        emit LogFundTransfer(msg.sender,_toshopkeep, _productid, _quant, amounttotransfer);  \r\n        return true;\r\n    }  \r\n\r\n\r\n    // Fallback function - Called if other functions don't match call or\r\n    // sent ether without data\r\n    // Typically, called when invalid data is sent\r\n    // Added so ether sent to this contract is reverted if the contract fails\r\n    // otherwise, the sender's money is transferred to contract\r\n    /* @title Fallback*/    \r\n    /* @dev fallback function if contract called with no function to force it to revert.\r\n        @return revert\r\n    */       \r\n    function () public {\r\n        revert(\"Contract failure\");\r\n    }\r\n    \r\n}",
  "sourcePath": "C:\\Active\\BitBucket_Repositories\\Consensys_project\\AncientCoinShop\\contracts\\Shop.sol",
  "compiler": {
    "name": "solc",
    "version": "0.4.24+commit.e67f0147.Emscripten.clang"
  },
  "schemaVersion": "2.0.1",
  "updatedAt": "2018-08-28T09:22:47.284Z"
}