{
  "contractName": "Shopper",
  "abi": [
    {
      "constant": true,
      "inputs": [
        {
          "name": "",
          "type": "uint256"
        }
      ],
      "name": "shopperIndex",
      "outputs": [
        {
          "name": "",
          "type": "address"
        }
      ],
      "payable": false,
      "stateMutability": "view",
      "type": "function"
    },
    {
      "constant": true,
      "inputs": [
        {
          "name": "",
          "type": "address"
        }
      ],
      "name": "shopperStructs",
      "outputs": [
        {
          "name": "Name",
          "type": "bytes32"
        },
        {
          "name": "index",
          "type": "uint256"
        }
      ],
      "payable": false,
      "stateMutability": "view",
      "type": "function"
    },
    {
      "inputs": [],
      "payable": false,
      "stateMutability": "nonpayable",
      "type": "constructor"
    },
    {
      "payable": false,
      "stateMutability": "nonpayable",
      "type": "fallback"
    },
    {
      "anonymous": false,
      "inputs": [
        {
          "indexed": true,
          "name": "shopperAddress",
          "type": "address"
        },
        {
          "indexed": false,
          "name": "index",
          "type": "uint256"
        }
      ],
      "name": "LogNewShopper",
      "type": "event"
    },
    {
      "anonymous": false,
      "inputs": [
        {
          "indexed": true,
          "name": "shopperAddress",
          "type": "address"
        },
        {
          "indexed": false,
          "name": "index",
          "type": "uint256"
        }
      ],
      "name": "LogUpdateShopper",
      "type": "event"
    },
    {
      "anonymous": false,
      "inputs": [
        {
          "indexed": true,
          "name": "shopperAddress",
          "type": "address"
        },
        {
          "indexed": false,
          "name": "index",
          "type": "uint256"
        }
      ],
      "name": "LogDeleteShopper",
      "type": "event"
    },
    {
      "anonymous": false,
      "inputs": [
        {
          "indexed": true,
          "name": "buyer",
          "type": "address"
        },
        {
          "indexed": false,
          "name": "seller",
          "type": "address"
        },
        {
          "indexed": false,
          "name": "productid",
          "type": "uint256"
        },
        {
          "indexed": false,
          "name": "quant",
          "type": "uint256"
        },
        {
          "indexed": false,
          "name": "value",
          "type": "uint256"
        }
      ],
      "name": "LogBuy",
      "type": "event"
    },
    {
      "constant": false,
      "inputs": [],
      "name": "kill",
      "outputs": [],
      "payable": false,
      "stateMutability": "nonpayable",
      "type": "function"
    },
    {
      "constant": true,
      "inputs": [],
      "name": "getShopperIndexLength",
      "outputs": [
        {
          "name": "",
          "type": "uint256"
        }
      ],
      "payable": false,
      "stateMutability": "view",
      "type": "function"
    },
    {
      "constant": true,
      "inputs": [
        {
          "name": "_shopperAddress",
          "type": "address"
        }
      ],
      "name": "isShopper",
      "outputs": [
        {
          "name": "",
          "type": "bool"
        }
      ],
      "payable": false,
      "stateMutability": "view",
      "type": "function"
    },
    {
      "constant": false,
      "inputs": [
        {
          "name": "_shopperAddress",
          "type": "address"
        }
      ],
      "name": "insertShopper",
      "outputs": [
        {
          "name": "",
          "type": "uint256"
        }
      ],
      "payable": false,
      "stateMutability": "nonpayable",
      "type": "function"
    },
    {
      "constant": true,
      "inputs": [
        {
          "name": "index",
          "type": "uint256"
        }
      ],
      "name": "getShopperAtIndex",
      "outputs": [
        {
          "name": "",
          "type": "address"
        }
      ],
      "payable": false,
      "stateMutability": "view",
      "type": "function"
    },
    {
      "constant": true,
      "inputs": [
        {
          "name": "_shopperAddress",
          "type": "address"
        }
      ],
      "name": "getShopperid",
      "outputs": [
        {
          "name": "",
          "type": "uint256"
        }
      ],
      "payable": false,
      "stateMutability": "view",
      "type": "function"
    },
    {
      "constant": false,
      "inputs": [
        {
          "name": "_shopperAddress",
          "type": "address"
        }
      ],
      "name": "updateShopperName",
      "outputs": [
        {
          "name": "success",
          "type": "bool"
        }
      ],
      "payable": false,
      "stateMutability": "nonpayable",
      "type": "function"
    },
    {
      "constant": false,
      "inputs": [
        {
          "name": "_toseller",
          "type": "address"
        },
        {
          "name": "_productid",
          "type": "uint256"
        },
        {
          "name": "_quant",
          "type": "uint256"
        }
      ],
      "name": "Transfer",
      "outputs": [
        {
          "name": "",
          "type": "bool"
        }
      ],
      "payable": true,
      "stateMutability": "payable",
      "type": "function"
    }
  ],
  "bytecode": "0x608060405233600260006101000a81548173ffffffffffffffffffffffffffffffffffffffff021916908373ffffffffffffffffffffffffffffffffffffffff16021790555034801561005157600080fd5b5061006a33610070640100000000026401000000009004565b5061034c565b600061008a82610283640100000000026401000000009004565b1515156100ff576040517f08c379a00000000000000000000000000000000000000000000000000000000081526004018080602001828103825260178152602001807f53686f7070657220616c7265616479206578697374732e00000000000000000081525060200191505060405180910390fd5b6001808390806001815401808255809150509060018203906000526020600020016000909192909190916101000a81548173ffffffffffffffffffffffffffffffffffffffff021916908373ffffffffffffffffffffffffffffffffffffffff160217905550036000808473ffffffffffffffffffffffffffffffffffffffff1673ffffffffffffffffffffffffffffffffffffffff168152602001908152602001600020600101819055508173ffffffffffffffffffffffffffffffffffffffff167f6081cb524c1bf05a76d609d5c3705217d96c10f9178f071ec3968c82992d6c3f6000808573ffffffffffffffffffffffffffffffffffffffff1673ffffffffffffffffffffffffffffffffffffffff168152602001908152602001600020600101546040518082815260200191505060405180910390a26000808373ffffffffffffffffffffffffffffffffffffffff1673ffffffffffffffffffffffffffffffffffffffff168152602001908152602001600020600101549050919050565b600080600180549050141561029b5760009050610347565b8173ffffffffffffffffffffffffffffffffffffffff1660016000808573ffffffffffffffffffffffffffffffffffffffff1673ffffffffffffffffffffffffffffffffffffffff1681526020019081526020016000206001015481548110151561030257fe5b9060005260206000200160009054906101000a900473ffffffffffffffffffffffffffffffffffffffff1673ffffffffffffffffffffffffffffffffffffffff161490505b919050565b610b188061035b6000396000f3006080604052600436106100a4576000357c0100000000000000000000000000000000000000000000000000000000900463ffffffff16806341c0e1b51461011f57806367251e50146101365780637eb7d65b146101615780637fa9aafe146101ce578063877fc5d4146102305780638f2f3b3a1461028b57806392803e5e146102f1578063cb78d97e14610348578063e20c0925146103a3578063f18a4f8c14610410575b3480156100b057600080fd5b506040517f08c379a00000000000000000000000000000000000000000000000000000000081526004018080602001828103825260108152602001807f436f6e7472616374206661696c7572650000000000000000000000000000000081525060200191505060405180910390fd5b34801561012b57600080fd5b50610134610467565b005b34801561014257600080fd5b5061014b6104fa565b6040518082815260200191505060405180910390f35b34801561016d57600080fd5b5061018c60048036038101908080359060200190929190505050610507565b604051808273ffffffffffffffffffffffffffffffffffffffff1673ffffffffffffffffffffffffffffffffffffffff16815260200191505060405180910390f35b610216600480360381019080803573ffffffffffffffffffffffffffffffffffffffff1690602001909291908035906020019092919080359060200190929190505050610545565b604051808215151515815260200191505060405180910390f35b34801561023c57600080fd5b50610271600480360381019080803573ffffffffffffffffffffffffffffffffffffffff169060200190929190505050610630565b604051808215151515815260200191505060405180910390f35b34801561029757600080fd5b506102cc600480360381019080803573ffffffffffffffffffffffffffffffffffffffff16906020019092919050505061076d565b6040518083600019166000191681526020018281526020019250505060405180910390f35b3480156102fd57600080fd5b50610332600480360381019080803573ffffffffffffffffffffffffffffffffffffffff169060200190929190505050610791565b6040518082815260200191505060405180910390f35b34801561035457600080fd5b50610389600480360381019080803573ffffffffffffffffffffffffffffffffffffffff1690602001909291905050506107dc565b604051808215151515815260200191505060405180910390f35b3480156103af57600080fd5b506103ce600480360381019080803590602001909291905050506108a5565b604051808273ffffffffffffffffffffffffffffffffffffffff1673ffffffffffffffffffffffffffffffffffffffff16815260200191505060405180910390f35b34801561041c57600080fd5b50610451600480360381019080803573ffffffffffffffffffffffffffffffffffffffff1690602001909291905050506108e8565b6040518082815260200191505060405180910390f35b600260009054906101000a900473ffffffffffffffffffffffffffffffffffffffff1673ffffffffffffffffffffffffffffffffffffffff163373ffffffffffffffffffffffffffffffffffffffff1614156104f857600260009054906101000a900473ffffffffffffffffffffffffffffffffffffffff1673ffffffffffffffffffffffffffffffffffffffff16ff5b565b6000600180549050905090565b60018181548110151561051657fe5b906000526020600020016000915054906101000a900473ffffffffffffffffffffffffffffffffffffffff1681565b6000803490508473ffffffffffffffffffffffffffffffffffffffff166108fc349081150290604051600060405180830381858888f19350505050158015610591573d6000803e3d6000fd5b503373ffffffffffffffffffffffffffffffffffffffff167fdd17c690ad9f5356a63dab51cf1e479ae2e0608e7eb74d0148d1d609712345f686868685604051808573ffffffffffffffffffffffffffffffffffffffff1673ffffffffffffffffffffffffffffffffffffffff16815260200184815260200183815260200182815260200194505050505060405180910390a260019150509392505050565b600061063b826107dc565b15156106d5576040517f08c379a00000000000000000000000000000000000000000000000000000000081526004018080602001828103825260258152602001807f53686f7070657220746f206265207570646174656420646f6573206e6f74206581526020017f786973742e00000000000000000000000000000000000000000000000000000081525060400191505060405180910390fd5b8173ffffffffffffffffffffffffffffffffffffffff167f0c43f87858da0f099223aadf3373bcc7cbc9078f2f34d11d42da53e0c848b0f76000808573ffffffffffffffffffffffffffffffffffffffff1673ffffffffffffffffffffffffffffffffffffffff168152602001908152602001600020600101546040518082815260200191505060405180910390a260019050919050565b60006020528060005260406000206000915090508060000154908060010154905082565b60008060008373ffffffffffffffffffffffffffffffffffffffff1673ffffffffffffffffffffffffffffffffffffffff168152602001908152602001600020600101549050919050565b60008060018054905014156107f457600090506108a0565b8173ffffffffffffffffffffffffffffffffffffffff1660016000808573ffffffffffffffffffffffffffffffffffffffff1673ffffffffffffffffffffffffffffffffffffffff1681526020019081526020016000206001015481548110151561085b57fe5b9060005260206000200160009054906101000a900473ffffffffffffffffffffffffffffffffffffffff1673ffffffffffffffffffffffffffffffffffffffff161490505b919050565b60006001828154811015156108b657fe5b9060005260206000200160009054906101000a900473ffffffffffffffffffffffffffffffffffffffff169050919050565b60006108f3826107dc565b151515610968576040517f08c379a00000000000000000000000000000000000000000000000000000000081526004018080602001828103825260178152602001807f53686f7070657220616c7265616479206578697374732e00000000000000000081525060200191505060405180910390fd5b6001808390806001815401808255809150509060018203906000526020600020016000909192909190916101000a81548173ffffffffffffffffffffffffffffffffffffffff021916908373ffffffffffffffffffffffffffffffffffffffff160217905550036000808473ffffffffffffffffffffffffffffffffffffffff1673ffffffffffffffffffffffffffffffffffffffff168152602001908152602001600020600101819055508173ffffffffffffffffffffffffffffffffffffffff167f6081cb524c1bf05a76d609d5c3705217d96c10f9178f071ec3968c82992d6c3f6000808573ffffffffffffffffffffffffffffffffffffffff1673ffffffffffffffffffffffffffffffffffffffff168152602001908152602001600020600101546040518082815260200191505060405180910390a26000808373ffffffffffffffffffffffffffffffffffffffff1673ffffffffffffffffffffffffffffffffffffffff1681526020019081526020016000206001015490509190505600a165627a7a72305820714ec5b5fa5b9b9ee4c9631d87707e4ae462cbe8789827b462a21f6373d2e0770029",
  "source": "pragma solidity ^0.4.17;\r\n\r\nimport { MaintLibrary } from \"./MaintLibrary.sol\";\r\n\r\n/* @title Shopper*/\r\ncontract Shopper{\r\n    // Model a generic table structure\r\n    struct TableStruct2 {\r\n        bytes32 Name;\r\n        uint index; \r\n    } \r\n\r\n    mapping(address =>  TableStruct2) public shopperStructs; \r\n    address[] public shopperIndex;\r\n    address owner = msg.sender; \r\n\r\n    event LogNewShopper (address indexed shopperAddress, uint index);\r\n    event LogUpdateShopper (address indexed shopperAddress, uint index);\r\n    event LogDeleteShopper (address indexed  shopperAddress, uint index ); \r\n    event LogBuy(address indexed buyer,address seller, uint productid, uint quant, uint value);\r\n\r\n    //modifier checkowner() { \r\n    //    require(msg.sender == owner);  \r\n    //    _;\r\n    //}\r\n\r\n    //Constructor\r\n    constructor() public { \r\n        insertShopper(msg.sender);\r\n    }\r\n\r\n\r\n    // Kill contract function\r\n    /* @title kill*/\r\n    /* @dev kills contract      \r\n    */      \r\n    function kill() public { \r\n        if(msg.sender == owner) {\r\n            selfdestruct(owner); \r\n        }\r\n    }\r\n\r\n    // Shopper Functions \r\n    /* @title  getShopperIndexLength        */\r\n    function getShopperIndexLength() public view returns (uint) {\r\n        return  shopperIndex.length;\r\n    }\r\n    /* @title  isShopper         */\r\n    function isShopper(address _shopperAddress) public view returns(bool)\r\n    {\r\n        if(shopperIndex.length == 0) return false;\r\n        return (shopperIndex[shopperStructs[_shopperAddress].index] == _shopperAddress);\r\n    }\r\n    /* @title insertShopper         */\r\n    function insertShopper(address _shopperAddress ) public returns(uint )  {       \r\n        require(!isShopper(_shopperAddress),\"Shopper already exists.\");\r\n       \r\n        shopperStructs[_shopperAddress].index = shopperIndex.push(_shopperAddress)-1;\r\n        emit LogNewShopper(_shopperAddress, shopperStructs[_shopperAddress].index);\r\n        return  shopperStructs[_shopperAddress].index; \r\n    } \r\n \r\n     /* @title   getShopperAtIndex       */\r\n    function getShopperAtIndex(uint index) public view returns (address) {\r\n        return shopperIndex[index];\r\n    }\r\n    /* @title  getShopperid        */\r\n    function getShopperid(address _shopperAddress) public view returns (uint) {\r\n        return shopperStructs[_shopperAddress].index;\r\n    }\r\n    /* @title updateShopperName         */\r\n    function updateShopperName(address _shopperAddress) public returns(bool success) {\r\n        require(isShopper(_shopperAddress),\"Shopper to be updated does not exist.\");\r\n        emit LogUpdateShopper(_shopperAddress,shopperStructs[_shopperAddress].index);\r\n        return true;\r\n    }\r\n\r\n// make note in documentation, using 'transfer' method as a security implementation\r\n// if time : would be better security consideration if the seller could 'pull' money from buyer..need to read up how this is done.\r\n// need to 'vet' if the transfer is allowable (who could call it ?) how does the owner thing work ?\r\n// do checks in js, or better here ?  Owner=here, but perhaps referential integrity handled in js.\r\n// removed checkowner, doesn't make sense\r\n    /* @title  Transfer      */\r\n    function Transfer(address _toseller,uint _productid, uint _quant)   public  payable  returns (bool) {\r\n        uint amounttotransfer = msg.value;\r\n        _toseller.transfer(msg.value); \r\n        //  event\r\n        emit LogBuy(msg.sender,_toseller,_productid,_quant, amounttotransfer);          \r\n        return true;\r\n    }    \r\n\r\n    // Fallback function - Called if other functions don't match call or\r\n    // sent ether without data\r\n    // Typically, called when invalid data is sent\r\n    // Added so ether sent to this contract is reverted if the contract fails\r\n    // otherwise, the sender's money is transferred to contract\r\n    /* @title Fallback*/    \r\n    /* @dev fallback function if contract called with no function to force it to revert.\r\n        @return revert\r\n    */       \r\n    function () public {\r\n        revert(\"Contract failure\");\r\n    }\r\n\r\n}",
  "sourcePath": "C:\\Active\\BitBucket_Repositories\\Consensys_project\\AncientCoinShop\\contracts\\Shopper.sol",
  "compiler": {
    "name": "solc",
    "version": "0.4.24+commit.e67f0147.Emscripten.clang"
  },
  "schemaVersion": "2.0.1",
  "updatedAt": "2018-08-28T09:22:47.278Z"
}